{
  "_format": "hh-sol-artifact-1",
  "contractName": "NativeLiquidityPool",
  "sourceName": "contracts/NativeLiquidityPool.sol",
  "abi": [
    {
      "anonymous": false,
      "inputs": [
        {
          "indexed": true,
          "internalType": "address",
          "name": "tokenAddress",
          "type": "address"
        },
        {
          "indexed": true,
          "internalType": "address",
          "name": "provider",
          "type": "address"
        },
        {
          "indexed": false,
          "internalType": "uint256",
          "name": "tokenAmount",
          "type": "uint256"
        },
        {
          "indexed": false,
          "internalType": "uint256",
          "name": "avaxAmount",
          "type": "uint256"
        }
      ],
      "name": "LiquidityAdded",
      "type": "event"
    },
    {
      "anonymous": false,
      "inputs": [
        {
          "indexed": true,
          "internalType": "address",
          "name": "tokenAddress",
          "type": "address"
        },
        {
          "indexed": true,
          "internalType": "address",
          "name": "recipient",
          "type": "address"
        },
        {
          "indexed": false,
          "internalType": "uint256",
          "name": "amount",
          "type": "uint256"
        }
      ],
      "name": "RewardMinted",
      "type": "event"
    },
    {
      "inputs": [
        {
          "internalType": "address",
          "name": "tokenAddress",
          "type": "address"
        },
        {
          "internalType": "uint256",
          "name": "tokenAmount",
          "type": "uint256"
        }
      ],
      "name": "addLiquidity",
      "outputs": [],
      "stateMutability": "payable",
      "type": "function"
    },
    {
      "inputs": [
        {
          "internalType": "address",
          "name": "",
          "type": "address"
        },
        {
          "internalType": "address",
          "name": "",
          "type": "address"
        }
      ],
      "name": "isLiquidityProvider",
      "outputs": [
        {
          "internalType": "bool",
          "name": "",
          "type": "bool"
        }
      ],
      "stateMutability": "view",
      "type": "function"
    },
    {
      "inputs": [
        {
          "internalType": "address",
          "name": "tokenAddress",
          "type": "address"
        },
        {
          "internalType": "address",
          "name": "recipient",
          "type": "address"
        },
        {
          "internalType": "uint256",
          "name": "amount",
          "type": "uint256"
        }
      ],
      "name": "mintReward",
      "outputs": [],
      "stateMutability": "nonpayable",
      "type": "function"
    },
    {
      "inputs": [],
      "name": "nativeMinter",
      "outputs": [
        {
          "internalType": "contract INativeMinter",
          "name": "",
          "type": "address"
        }
      ],
      "stateMutability": "view",
      "type": "function"
    }
  ],
  "bytecode": "0x6080604052348015600f57600080fd5b506104fb8061001f6000396000f3fe60806040526004361061003f5760003560e01c8063035eedaf14610044578063174eaef71461009157806343c60544146100c457806356688700146100e6575b600080fd5b34801561005057600080fd5b5061007c61005f366004610402565b600060208181529281526040808220909352908152205460ff1681565b60405190151581526020015b60405180910390f35b34801561009d57600080fd5b506100ac6001600160991b0181565b6040516001600160a01b039091168152602001610088565b3480156100d057600080fd5b506100e46100df366004610435565b6100f9565b005b6100e46100f4366004610472565b61023a565b6001600160a01b03831660009081526020818152604080832033845290915290205460ff166101815760405162461bcd60e51b815260206004820152602960248201527f4f6e6c79206c69717569646974792070726f7669646572732063616e206d696e60448201526874207265776172647360b81b60648201526084015b60405180910390fd5b6040516327ad555d60e11b81526001600160a01b0383166004820152602481018290526001600160991b0190634f5aaaba90604401600060405180830381600087803b1580156101d057600080fd5b505af11580156101e4573d6000803e3d6000fd5b50505050816001600160a01b0316836001600160a01b03167fd547e92a29a1ec35058d0ed0f7248d023db327a01edd8d50110f78d3d79ab7d88360405161022d91815260200190565b60405180910390a3505050565b6000341161027e5760405162461bcd60e51b815260206004820152601160248201527009aeae6e840e0e4deecd2c8ca4082ac82b607b1b6044820152606401610178565b600081116102c45760405162461bcd60e51b81526020600482015260136024820152724d7573742070726f7669646520746f6b656e7360681b6044820152606401610178565b6040516323b872dd60e01b81523360048201523060248201526044810182905282906001600160a01b038216906323b872dd906064016020604051808303816000875af1158015610319573d6000803e3d6000fd5b505050506040513d601f19601f8201168201806040525081019061033d919061049c565b61037b5760405162461bcd60e51b815260206004820152600f60248201526e151c985b9cd9995c8819985a5b1959608a1b6044820152606401610178565b6001600160a01b03831660008181526020818152604080832033808552925291829020805460ff1916600117905590519091907f36f3b2e1a21c19137dd82ec243b0708a1d26b3d1fa1dc49c44c4c366a58781389061022d9086903490918252602082015260400190565b80356001600160a01b03811681146103fd57600080fd5b919050565b6000806040838503121561041557600080fd5b61041e836103e6565b915061042c602084016103e6565b90509250929050565b60008060006060848603121561044a57600080fd5b610453846103e6565b9250610461602085016103e6565b929592945050506040919091013590565b6000806040838503121561048557600080fd5b61048e836103e6565b946020939093013593505050565b6000602082840312156104ae57600080fd5b815180151581146104be57600080fd5b939250505056fea2646970667358221220ce1b0fa2026141bb629135a66be0b622e101d6b3c532d87f5cfe30107f1f281864736f6c634300081c0033",
  "linkReferences": {},
  "deployedLinkReferences": {}
}