{
  "_format": "hh-sol-artifact-1",
  "contractName": "Faucet",
  "sourceName": "contracts/Faucet.sol",
  "abi": [
    {
      "inputs": [
        {
          "internalType": "uint256",
          "name": "remainingTime",
          "type": "uint256"
        }
      ],
      "name": "CooldownNotExpired",
      "type": "error"
    },
    {
      "inputs": [],
      "name": "FaucetDrainFailed",
      "type": "error"
    },
    {
      "inputs": [],
      "name": "InsufficientFaucetBalance",
      "type": "error"
    },
    {
      "inputs": [],
      "name": "InvalidReceiver",
      "type": "error"
    },
    {
      "anonymous": false,
      "inputs": [
        {
          "indexed": true,
          "internalType": "address",
          "name": "recipient",
          "type": "address"
        },
        {
          "indexed": false,
          "internalType": "uint256",
          "name": "amount",
          "type": "uint256"
        },
        {
          "indexed": false,
          "internalType": "uint256",
          "name": "timestamp",
          "type": "uint256"
        }
      ],
      "name": "FaucetClaimed",
      "type": "event"
    },
    {
      "inputs": [],
      "name": "COOLDOWN_TIME",
      "outputs": [
        {
          "internalType": "uint256",
          "name": "",
          "type": "uint256"
        }
      ],
      "stateMutability": "view",
      "type": "function"
    },
    {
      "inputs": [],
      "name": "FAUCET_AMOUNT",
      "outputs": [
        {
          "internalType": "uint256",
          "name": "",
          "type": "uint256"
        }
      ],
      "stateMutability": "view",
      "type": "function"
    },
    {
      "inputs": [
        {
          "internalType": "address",
          "name": "receiver",
          "type": "address"
        }
      ],
      "name": "claimTokens",
      "outputs": [],
      "stateMutability": "nonpayable",
      "type": "function"
    },
    {
      "inputs": [
        {
          "internalType": "address",
          "name": "user",
          "type": "address"
        }
      ],
      "name": "getRemainingCooldown",
      "outputs": [
        {
          "internalType": "uint256",
          "name": "",
          "type": "uint256"
        }
      ],
      "stateMutability": "view",
      "type": "function"
    },
    {
      "inputs": [
        {
          "internalType": "address",
          "name": "",
          "type": "address"
        }
      ],
      "name": "lastFaucetTime",
      "outputs": [
        {
          "internalType": "uint256",
          "name": "",
          "type": "uint256"
        }
      ],
      "stateMutability": "view",
      "type": "function"
    },
    {
      "stateMutability": "payable",
      "type": "receive"
    }
  ],
  "bytecode": "0x6080604052348015600f57600080fd5b506103cf8061001f6000396000f3fe60806040526004361061004e5760003560e01c8063766976401461005a5780637bc1f6cc146100885780637d263245146100b5578063df8de3e7146100cc578063e6f3e004146100ee57600080fd5b3661005557005b600080fd5b34801561006657600080fd5b50610076670de0b6b3a764000081565b60405190815260200160405180910390f35b34801561009457600080fd5b506100766100a336600461032d565b60006020819052908152604090205481565b3480156100c157600080fd5b506100766201518081565b3480156100d857600080fd5b506100ec6100e736600461032d565b61010e565b005b3480156100fa57600080fd5b5061007661010936600461032d565b6102bf565b6001600160a01b03811661013557604051631e4ec46b60e01b815260040160405180910390fd5b6001600160a01b03811660009081526020819052604090205461015c906201518090610373565b4210156101be576001600160a01b038116600090815260208190526040812054429061018c906201518090610373565b6101969190610386565b905080604051634263cbc360e01b81526004016101b591815260200190565b60405180910390fd5b670de0b6b3a76400004710156101e7576040516325bab55360e01b815260040160405180910390fd5b6001600160a01b03811660008181526020819052604080822042905551909190670de0b6b3a7640000908381818185875af1925050503d8060008114610249576040519150601f19603f3d011682016040523d82523d6000602084013e61024e565b606091505b5050905080610270576040516338665f4b60e11b815260040160405180910390fd5b60408051670de0b6b3a764000081524260208201526001600160a01b038416917fa19a7d2b5bf6a987a66e0eac8a6eb2dbd34ae6a43285849af788b224268ec022910160405180910390a25050565b6001600160a01b0381166000908152602081905260408120546102e6906201518090610373565b42106102f457506000919050565b6001600160a01b038216600090815260208190526040902054429061031d906201518090610373565b6103279190610386565b92915050565b60006020828403121561033f57600080fd5b81356001600160a01b038116811461035657600080fd5b9392505050565b634e487b7160e01b600052601160045260246000fd5b808201808211156103275761032761035d565b818103818111156103275761032761035d56fea264697066735822122060ec5f7b7a1e41b917dc72b73ec92b5c9e8cbca99dcbc5971dc9fc840563bbc264736f6c634300081c0033",
  "linkReferences": {},
  "deployedLinkReferences": {}
}