{
  "_format": "hh-sol-artifact-1",
  "contractName": "TokenFactory",
  "sourceName": "contracts/TokenFactory.sol",
  "abi": [
    {
      "inputs": [
        {
          "internalType": "address",
          "name": "_nativeLiquidityPoolAddress",
          "type": "address"
        }
      ],
      "stateMutability": "nonpayable",
      "type": "constructor"
    },
    {
      "anonymous": false,
      "inputs": [
        {
          "indexed": true,
          "internalType": "address",
          "name": "user",
          "type": "address"
        },
        {
          "indexed": true,
          "internalType": "address",
          "name": "tokenAddress",
          "type": "address"
        },
        {
          "indexed": false,
          "internalType": "uint256",
          "name": "amount",
          "type": "uint256"
        }
      ],
      "name": "RewardClaimed",
      "type": "event"
    },
    {
      "inputs": [
        {
          "internalType": "address",
          "name": "",
          "type": "address"
        }
      ],
      "name": "addressToMemeTokenMapping",
      "outputs": [
        {
          "internalType": "string",
          "name": "name",
          "type": "string"
        },
        {
          "internalType": "string",
          "name": "symbol",
          "type": "string"
        },
        {
          "internalType": "string",
          "name": "description",
          "type": "string"
        },
        {
          "internalType": "string",
          "name": "tokenImageUrl",
          "type": "string"
        },
        {
          "internalType": "uint256",
          "name": "fundingRaised",
          "type": "uint256"
        },
        {
          "internalType": "address",
          "name": "tokenAddress",
          "type": "address"
        },
        {
          "internalType": "address",
          "name": "creatorAddress",
          "type": "address"
        },
        {
          "internalType": "bool",
          "name": "isLiquidityCreated",
          "type": "bool"
        },
        {
          "internalType": "uint256",
          "name": "holders",
          "type": "uint256"
        }
      ],
      "stateMutability": "view",
      "type": "function"
    },
    {
      "inputs": [],
      "name": "bondingCurvePrecompile",
      "outputs": [
        {
          "internalType": "contract IBondingCurvePrecompile",
          "name": "",
          "type": "address"
        }
      ],
      "stateMutability": "view",
      "type": "function"
    },
    {
      "inputs": [
        {
          "internalType": "address",
          "name": "memeTokenAddress",
          "type": "address"
        },
        {
          "internalType": "uint256",
          "name": "tokenQty",
          "type": "uint256"
        }
      ],
      "name": "buyMemeToken",
      "outputs": [
        {
          "internalType": "uint256",
          "name": "",
          "type": "uint256"
        }
      ],
      "stateMutability": "payable",
      "type": "function"
    },
    {
      "inputs": [
        {
          "internalType": "address",
          "name": "memeTokenAddress",
          "type": "address"
        },
        {
          "internalType": "address",
          "name": "user",
          "type": "address"
        }
      ],
      "name": "calculateReward",
      "outputs": [
        {
          "internalType": "uint256",
          "name": "",
          "type": "uint256"
        }
      ],
      "stateMutability": "view",
      "type": "function"
    },
    {
      "inputs": [
        {
          "internalType": "address",
          "name": "memeTokenAddress",
          "type": "address"
        }
      ],
      "name": "claimReward",
      "outputs": [],
      "stateMutability": "nonpayable",
      "type": "function"
    },
    {
      "inputs": [
        {
          "internalType": "string",
          "name": "name",
          "type": "string"
        },
        {
          "internalType": "string",
          "name": "symbol",
          "type": "string"
        },
        {
          "internalType": "string",
          "name": "imageUrl",
          "type": "string"
        },
        {
          "internalType": "string",
          "name": "description",
          "type": "string"
        }
      ],
      "name": "createMemeToken",
      "outputs": [
        {
          "internalType": "address",
          "name": "",
          "type": "address"
        }
      ],
      "stateMutability": "nonpayable",
      "type": "function"
    },
    {
      "inputs": [],
      "name": "getAllMemeTokens",
      "outputs": [
        {
          "components": [
            {
              "internalType": "string",
              "name": "name",
              "type": "string"
            },
            {
              "internalType": "string",
              "name": "symbol",
              "type": "string"
            },
            {
              "internalType": "string",
              "name": "description",
              "type": "string"
            },
            {
              "internalType": "string",
              "name": "tokenImageUrl",
              "type": "string"
            },
            {
              "internalType": "uint256",
              "name": "fundingRaised",
              "type": "uint256"
            },
            {
              "internalType": "address",
              "name": "tokenAddress",
              "type": "address"
            },
            {
              "internalType": "address",
              "name": "creatorAddress",
              "type": "address"
            },
            {
              "internalType": "bool",
              "name": "isLiquidityCreated",
              "type": "bool"
            },
            {
              "internalType": "uint256",
              "name": "holders",
              "type": "uint256"
            }
          ],
          "internalType": "struct TokenFactory.memeToken[]",
          "name": "",
          "type": "tuple[]"
        }
      ],
      "stateMutability": "view",
      "type": "function"
    },
    {
      "inputs": [
        {
          "internalType": "uint256",
          "name": "currentSupply",
          "type": "uint256"
        },
        {
          "internalType": "uint256",
          "name": "tokensToBuy",
          "type": "uint256"
        }
      ],
      "name": "getCost",
      "outputs": [
        {
          "internalType": "uint256",
          "name": "",
          "type": "uint256"
        }
      ],
      "stateMutability": "nonpayable",
      "type": "function"
    },
    {
      "inputs": [
        {
          "internalType": "uint256",
          "name": "index",
          "type": "uint256"
        }
      ],
      "name": "getMemeTokenByIndex",
      "outputs": [
        {
          "internalType": "string",
          "name": "",
          "type": "string"
        },
        {
          "internalType": "string",
          "name": "",
          "type": "string"
        },
        {
          "internalType": "string",
          "name": "",
          "type": "string"
        },
        {
          "internalType": "string",
          "name": "",
          "type": "string"
        },
        {
          "internalType": "uint256",
          "name": "",
          "type": "uint256"
        },
        {
          "internalType": "address",
          "name": "",
          "type": "address"
        },
        {
          "internalType": "address",
          "name": "",
          "type": "address"
        },
        {
          "internalType": "bool",
          "name": "",
          "type": "bool"
        },
        {
          "internalType": "uint256",
          "name": "",
          "type": "uint256"
        }
      ],
      "stateMutability": "view",
      "type": "function"
    },
    {
      "inputs": [],
      "name": "getMemeTokenCount",
      "outputs": [
        {
          "internalType": "uint256",
          "name": "",
          "type": "uint256"
        }
      ],
      "stateMutability": "view",
      "type": "function"
    },
    {
      "inputs": [
        {
          "internalType": "address",
          "name": "memeTokenAddress",
          "type": "address"
        },
        {
          "internalType": "address",
          "name": "user",
          "type": "address"
        }
      ],
      "name": "getUserTokenContribution",
      "outputs": [
        {
          "internalType": "uint256",
          "name": "",
          "type": "uint256"
        }
      ],
      "stateMutability": "view",
      "type": "function"
    },
    {
      "inputs": [
        {
          "internalType": "address",
          "name": "",
          "type": "address"
        },
        {
          "internalType": "address",
          "name": "",
          "type": "address"
        }
      ],
      "name": "hasClaimedReward",
      "outputs": [
        {
          "internalType": "bool",
          "name": "",
          "type": "bool"
        }
      ],
      "stateMutability": "view",
      "type": "function"
    },
    {
      "inputs": [
        {
          "internalType": "address",
          "name": "memeTokenAddress",
          "type": "address"
        },
        {
          "internalType": "address",
          "name": "user",
          "type": "address"
        }
      ],
      "name": "hasUserClaimedReward",
      "outputs": [
        {
          "internalType": "bool",
          "name": "",
          "type": "bool"
        }
      ],
      "stateMutability": "view",
      "type": "function"
    },
    {
      "inputs": [
        {
          "internalType": "uint256",
          "name": "",
          "type": "uint256"
        }
      ],
      "name": "memeTokenAddresses",
      "outputs": [
        {
          "internalType": "address",
          "name": "",
          "type": "address"
        }
      ],
      "stateMutability": "view",
      "type": "function"
    },
    {
      "inputs": [],
      "name": "messenger",
      "outputs": [
        {
          "internalType": "contract ITeleporterMessenger",
          "name": "",
          "type": "address"
        }
      ],
      "stateMutability": "view",
      "type": "function"
    },
    {
      "inputs": [],
      "name": "nativeLiquidityPool",
      "outputs": [
        {
          "internalType": "contract NativeLiquidityPool",
          "name": "",
          "type": "address"
        }
      ],
      "stateMutability": "view",
      "type": "function"
    },
    {
      "inputs": [
        {
          "internalType": "bytes32",
          "name": "sourceBlockchainID",
          "type": "bytes32"
        },
        {
          "internalType": "address",
          "name": "originSenderAddress",
          "type": "address"
        },
        {
          "internalType": "bytes",
          "name": "message",
          "type": "bytes"
        }
      ],
      "name": "receiveTeleporterMessage",
      "outputs": [],
      "stateMutability": "nonpayable",
      "type": "function"
    },
    {
      "inputs": [
        {
          "internalType": "address",
          "name": "memeTokenAddress",
          "type": "address"
        },
        {
          "internalType": "uint256",
          "name": "tokenQty",
          "type": "uint256"
        }
      ],
      "name": "sellMemeToken",
      "outputs": [
        {
          "internalType": "uint256",
          "name": "",
          "type": "uint256"
        }
      ],
      "stateMutability": "nonpayable",
      "type": "function"
    },
    {
      "inputs": [
        {
          "internalType": "address",
          "name": "",
          "type": "address"
        },
        {
          "internalType": "address",
          "name": "",
          "type": "address"
        }
      ],
      "name": "userTokenContributions",
      "outputs": [
        {
          "internalType": "uint256",
          "name": "",
          "type": "uint256"
        }
      ],
      "stateMutability": "view",
      "type": "function"
    }
  ],
  "bytecode": "0x60a060405273253b2784c75e510dd0ff1da844684a1ac0aa5fcf73ffffffffffffffffffffffffffffffffffffffff1660809073ffffffffffffffffffffffffffffffffffffffff16815250730300000000000000000000000000000000000002600560006101000a81548173ffffffffffffffffffffffffffffffffffffffff021916908373ffffffffffffffffffffffffffffffffffffffff1602179055503480156100ac57600080fd5b5060405161659c38038061659c83398181016040528101906100ce9190610178565b80600460006101000a81548173ffffffffffffffffffffffffffffffffffffffff021916908373ffffffffffffffffffffffffffffffffffffffff160217905550506101a5565b600080fd5b600073ffffffffffffffffffffffffffffffffffffffff82169050919050565b60006101458261011a565b9050919050565b6101558161013a565b811461016057600080fd5b50565b6000815190506101728161014c565b92915050565b60006020828403121561018e5761018d610115565b5b600061019c84828501610163565b91505092915050565b6080516163c76101d560003960008181610aec01528181611837015281816119ab0152612ab101526163c76000f3fe6080604052600436106101145760003560e01c8063a7c18c14116100a0578063d279c19111610064578063d279c19114610423578063dd5988cd1461044c578063de887eb114610489578063e27dfaa4146104b4578063e823bfd5146104f157610114565b8063a7c18c141461032a578063af62fb5e14610367578063bcfeed9a146103a4578063c77031b4146103cf578063c868efaa146103fa57610114565b80633cb747bf116100e75780633cb747bf1461020357806347fb20fd1461022e57806360484ef91461026b5780637ca44fcf146102b05780639aaa546c146102ed57610114565b8063036e8cab14610119578063075bb17d14610144578063130da9601461018157806313cb5ad6146101c6575b600080fd5b34801561012557600080fd5b5061012e610521565b60405161013b9190612da2565b60405180910390f35b34801561015057600080fd5b5061016b60048036038101906101669190612f17565b610547565b604051610178919061300f565b60405180910390f35b34801561018d57600080fd5b506101a860048036038101906101a39190613056565b6107f0565b6040516101bd99989796959493929190613136565b60405180910390f35b3480156101d257600080fd5b506101ed60048036038101906101e8919061320b565b610aab565b6040516101fa919061300f565b60405180910390f35b34801561020f57600080fd5b50610218610aea565b6040516102259190613259565b60405180910390f35b34801561023a57600080fd5b5061025560048036038101906102509190613274565b610b0e565b60405161026291906132b4565b60405180910390f35b34801561027757600080fd5b50610292600480360381019061028d919061320b565b610b33565b6040516102a799989796959493929190613136565b60405180910390f35b3480156102bc57600080fd5b506102d760048036038101906102d29190613274565b610f84565b6040516102e491906132b4565b60405180910390f35b3480156102f957600080fd5b50610314600480360381019061030f9190613274565b61127f565b60405161032191906132cf565b60405180910390f35b34801561033657600080fd5b50610351600480360381019061034c91906132ea565b6112ae565b60405161035e91906132b4565b60405180910390f35b34801561037357600080fd5b5061038e60048036038101906103899190613274565b611356565b60405161039b91906132b4565b60405180910390f35b3480156103b057600080fd5b506103b96113dd565b6040516103c6919061353d565b60405180910390f35b3480156103db57600080fd5b506103e4611829565b6040516103f191906132b4565b60405180910390f35b34801561040657600080fd5b50610421600480360381019061041c91906135f5565b611835565b005b34801561042f57600080fd5b5061044a60048036038101906104459190613056565b611b28565b005b34801561045857600080fd5b50610473600480360381019061046e9190613669565b611f20565b60405161048091906132b4565b60405180910390f35b34801561049557600080fd5b5061049e6123d7565b6040516104ab91906136ca565b60405180910390f35b3480156104c057600080fd5b506104db60048036038101906104d69190613274565b6123fd565b6040516104e891906132cf565b60405180910390f35b61050b60048036038101906105069190613669565b612491565b60405161051891906132b4565b60405180910390f35b600460009054906101000a900473ffffffffffffffffffffffffffffffffffffffff1681565b600080858560c860405161055a90612c92565b610566939291906136e5565b604051809103906000f080158015610582573d6000803e3d6000fd5b50905060008190506000604051806101200160405280898152602001888152602001868152602001878152602001600081526020018373ffffffffffffffffffffffffffffffffffffffff1681526020013373ffffffffffffffffffffffffffffffffffffffff168152602001600015158152602001600081525090506000829080600181540180825580915050600190039060005260206000200160009091909190916101000a81548173ffffffffffffffffffffffffffffffffffffffff021916908373ffffffffffffffffffffffffffffffffffffffff16021790555080600160008473ffffffffffffffffffffffffffffffffffffffff1673ffffffffffffffffffffffffffffffffffffffff16815260200190815260200160002060008201518160000190816106b7919061392c565b5060208201518160010190816106cd919061392c565b5060408201518160020190816106e3919061392c565b5060608201518160030190816106f9919061392c565b506080820151816004015560a08201518160050160006101000a81548173ffffffffffffffffffffffffffffffffffffffff021916908373ffffffffffffffffffffffffffffffffffffffff16021790555060c08201518160060160006101000a81548173ffffffffffffffffffffffffffffffffffffffff021916908373ffffffffffffffffffffffffffffffffffffffff16021790555060e08201518160060160146101000a81548160ff02191690831515021790555061010082015181600701559050506107e2604051806060016040528060228152602001616370602291398361288f565b819350505050949350505050565b600160205280600052604060002060009150905080600001805461081390613759565b80601f016020809104026020016040519081016040528092919081815260200182805461083f90613759565b801561088c5780601f106108615761010080835404028352916020019161088c565b820191906000526020600020905b81548152906001019060200180831161086f57829003601f168201915b5050505050908060010180546108a190613759565b80601f01602080910402602001604051908101604052809291908181526020018280546108cd90613759565b801561091a5780601f106108ef5761010080835404028352916020019161091a565b820191906000526020600020905b8154815290600101906020018083116108fd57829003601f168201915b50505050509080600201805461092f90613759565b80601f016020809104026020016040519081016040528092919081815260200182805461095b90613759565b80156109a85780601f1061097d576101008083540402835291602001916109a8565b820191906000526020600020905b81548152906001019060200180831161098b57829003601f168201915b5050505050908060030180546109bd90613759565b80601f01602080910402602001604051908101604052809291908181526020018280546109e990613759565b8015610a365780601f10610a0b57610100808354040283529160200191610a36565b820191906000526020600020905b815481529060010190602001808311610a1957829003601f168201915b5050505050908060040154908060050160009054906101000a900473ffffffffffffffffffffffffffffffffffffffff16908060060160009054906101000a900473ffffffffffffffffffffffffffffffffffffffff16908060060160149054906101000a900460ff16908060070154905089565b60008181548110610abb57600080fd5b906000526020600020016000915054906101000a900473ffffffffffffffffffffffffffffffffffffffff1681565b7f000000000000000000000000000000000000000000000000000000000000000081565b6002602052816000526040600020602052806000526040600020600091509150505481565b606080606080600080600080600080805490508a10610b87576040517f08c379a0000000000000000000000000000000000000000000000000000000008152600401610b7e90613a4a565b60405180910390fd5b600060016000808d81548110610ba057610b9f613a6a565b5b9060005260206000200160009054906101000a900473ffffffffffffffffffffffffffffffffffffffff1673ffffffffffffffffffffffffffffffffffffffff1673ffffffffffffffffffffffffffffffffffffffff16815260200190815260200160002060405180610120016040529081600082018054610c2190613759565b80601f0160208091040260200160405190810160405280929190818152602001828054610c4d90613759565b8015610c9a5780601f10610c6f57610100808354040283529160200191610c9a565b820191906000526020600020905b815481529060010190602001808311610c7d57829003601f168201915b50505050508152602001600182018054610cb390613759565b80601f0160208091040260200160405190810160405280929190818152602001828054610cdf90613759565b8015610d2c5780601f10610d0157610100808354040283529160200191610d2c565b820191906000526020600020905b815481529060010190602001808311610d0f57829003601f168201915b50505050508152602001600282018054610d4590613759565b80601f0160208091040260200160405190810160405280929190818152602001828054610d7190613759565b8015610dbe5780601f10610d9357610100808354040283529160200191610dbe565b820191906000526020600020905b815481529060010190602001808311610da157829003601f168201915b50505050508152602001600382018054610dd790613759565b80601f0160208091040260200160405190810160405280929190818152602001828054610e0390613759565b8015610e505780601f10610e2557610100808354040283529160200191610e50565b820191906000526020600020905b815481529060010190602001808311610e3357829003601f168201915b50505050508152602001600482015481526020016005820160009054906101000a900473ffffffffffffffffffffffffffffffffffffffff1673ffffffffffffffffffffffffffffffffffffffff1673ffffffffffffffffffffffffffffffffffffffff1681526020016006820160009054906101000a900473ffffffffffffffffffffffffffffffffffffffff1673ffffffffffffffffffffffffffffffffffffffff1673ffffffffffffffffffffffffffffffffffffffff1681526020016006820160149054906101000a900460ff161515151581526020016007820154815250509050806000015181602001518260400151836060015184608001518560a001518660c001518760e00151886101000151995099509950995099509950995099509950509193959799909294969850565b6000600160008473ffffffffffffffffffffffffffffffffffffffff1673ffffffffffffffffffffffffffffffffffffffff16815260200190815260200160002060060160149054906101000a900460ff1615806110685750600360008473ffffffffffffffffffffffffffffffffffffffff1673ffffffffffffffffffffffffffffffffffffffff16815260200190815260200160002060008373ffffffffffffffffffffffffffffffffffffffff1673ffffffffffffffffffffffffffffffffffffffff16815260200190815260200160002060009054906101000a900460ff165b806110ef57506000600260008573ffffffffffffffffffffffffffffffffffffffff1673ffffffffffffffffffffffffffffffffffffffff16815260200190815260200160002060008473ffffffffffffffffffffffffffffffffffffffff1673ffffffffffffffffffffffffffffffffffffffff16815260200190815260200160002054145b156110fd5760009050611279565b6000839050600060c88273ffffffffffffffffffffffffffffffffffffffff166318160ddd6040518163ffffffff1660e01b8152600401602060405180830381865afa158015611151573d6000803e3d6000fd5b505050506040513d601f19601f820116820180604052508101906111759190613aae565b61117f9190613b0a565b90506000600260008773ffffffffffffffffffffffffffffffffffffffff1673ffffffffffffffffffffffffffffffffffffffff16815260200190815260200160002060008673ffffffffffffffffffffffffffffffffffffffff1673ffffffffffffffffffffffffffffffffffffffff16815260200190815260200160002054905060648261120f9190613b3e565b816003600160008a73ffffffffffffffffffffffffffffffffffffffff1673ffffffffffffffffffffffffffffffffffffffff1681526020019081526020016000206004015461125f9190613b3e565b6112699190613b3e565b6112739190613baf565b93505050505b92915050565b60036020528160005260406000206020528060005260406000206000915091509054906101000a900460ff1681565b6000600560009054906101000a900473ffffffffffffffffffffffffffffffffffffffff1673ffffffffffffffffffffffffffffffffffffffff1663a7c18c1484846040518363ffffffff1660e01b815260040161130d929190613be0565b602060405180830381865afa15801561132a573d6000803e3d6000fd5b505050506040513d601f19601f8201168201806040525081019061134e9190613aae565b905092915050565b6000600260008473ffffffffffffffffffffffffffffffffffffffff1673ffffffffffffffffffffffffffffffffffffffff16815260200190815260200160002060008373ffffffffffffffffffffffffffffffffffffffff1673ffffffffffffffffffffffffffffffffffffffff16815260200190815260200160002054905092915050565b60606000808054905067ffffffffffffffff8111156113ff576113fe612dec565b5b60405190808252806020026020018201604052801561143857816020015b611425612c9f565b81526020019060019003908161141d5790505b50905060005b600080549050811015611821576001600080838154811061146257611461613a6a565b5b9060005260206000200160009054906101000a900473ffffffffffffffffffffffffffffffffffffffff1673ffffffffffffffffffffffffffffffffffffffff1673ffffffffffffffffffffffffffffffffffffffff168152602001908152602001600020604051806101200160405290816000820180546114e390613759565b80601f016020809104026020016040519081016040528092919081815260200182805461150f90613759565b801561155c5780601f106115315761010080835404028352916020019161155c565b820191906000526020600020905b81548152906001019060200180831161153f57829003601f168201915b5050505050815260200160018201805461157590613759565b80601f01602080910402602001604051908101604052809291908181526020018280546115a190613759565b80156115ee5780601f106115c3576101008083540402835291602001916115ee565b820191906000526020600020905b8154815290600101906020018083116115d157829003601f168201915b5050505050815260200160028201805461160790613759565b80601f016020809104026020016040519081016040528092919081815260200182805461163390613759565b80156116805780601f1061165557610100808354040283529160200191611680565b820191906000526020600020905b81548152906001019060200180831161166357829003601f168201915b5050505050815260200160038201805461169990613759565b80601f01602080910402602001604051908101604052809291908181526020018280546116c590613759565b80156117125780601f106116e757610100808354040283529160200191611712565b820191906000526020600020905b8154815290600101906020018083116116f557829003601f168201915b50505050508152602001600482015481526020016005820160009054906101000a900473ffffffffffffffffffffffffffffffffffffffff1673ffffffffffffffffffffffffffffffffffffffff1673ffffffffffffffffffffffffffffffffffffffff1681526020016006820160009054906101000a900473ffffffffffffffffffffffffffffffffffffffff1673ffffffffffffffffffffffffffffffffffffffff1673ffffffffffffffffffffffffffffffffffffffff1681526020016006820160149054906101000a900460ff1615151515815260200160078201548152505082828151811061180957611808613a6a565b5b6020026020010181905250808060010191505061143e565b508091505090565b60008080549050905090565b7f000000000000000000000000000000000000000000000000000000000000000073ffffffffffffffffffffffffffffffffffffffff163373ffffffffffffffffffffffffffffffffffffffff16146118c3576040517f08c379a00000000000000000000000000000000000000000000000000000000081526004016118ba90613c7b565b60405180910390fd5b60008083838101906118d59190613cd9565b915091506040516020016118e890613d8c565b604051602081830303815290604052805190602001208260405160200161190f9190613dd2565b60405160208183030381529060405280519060200120036119855760018060008373ffffffffffffffffffffffffffffffffffffffff1673ffffffffffffffffffffffffffffffffffffffff16815260200190815260200160002060060160146101000a81548160ff0219169083151502179055505b6000826040516020016119989190613e0f565b60405160208183030381529060405290507f000000000000000000000000000000000000000000000000000000000000000073ffffffffffffffffffffffffffffffffffffffff1663624488506040518060c001604052808a81526020018973ffffffffffffffffffffffffffffffffffffffff1681526020016040518060400160405280600073ffffffffffffffffffffffffffffffffffffffff16815260200160008152508152602001620186a08152602001600067ffffffffffffffff811115611a6857611a67612dec565b5b604051908082528060200260200182016040528015611a965781602001602082028036833780820191505090505b50815260200184604051602001611aad9190613e35565b6040516020818303038152906040528152506040518263ffffffff1660e01b8152600401611adb9190614029565b6020604051808303816000875af1158015611afa573d6000803e3d6000fd5b505050506040513d601f19601f82011682018060405250810190611b1e9190614060565b5050505050505050565b600160008273ffffffffffffffffffffffffffffffffffffffff1673ffffffffffffffffffffffffffffffffffffffff16815260200190815260200160002060060160149054906101000a900460ff16611bb7576040517f08c379a0000000000000000000000000000000000000000000000000000000008152600401611bae906140d9565b60405180910390fd5b600360008273ffffffffffffffffffffffffffffffffffffffff1673ffffffffffffffffffffffffffffffffffffffff16815260200190815260200160002060003373ffffffffffffffffffffffffffffffffffffffff1673ffffffffffffffffffffffffffffffffffffffff16815260200190815260200160002060009054906101000a900460ff1615611c81576040517f08c379a0000000000000000000000000000000000000000000000000000000008152600401611c7890614145565b60405180910390fd5b6000600260008373ffffffffffffffffffffffffffffffffffffffff1673ffffffffffffffffffffffffffffffffffffffff16815260200190815260200160002060003373ffffffffffffffffffffffffffffffffffffffff1673ffffffffffffffffffffffffffffffffffffffff1681526020019081526020016000205411611d40576040517f08c379a0000000000000000000000000000000000000000000000000000000008152600401611d37906141b1565b60405180910390fd5b6000611d4c8233610f84565b905060008111611d91576040517f08c379a0000000000000000000000000000000000000000000000000000000008152600401611d889061421d565b60405180910390fd5b6001600360008473ffffffffffffffffffffffffffffffffffffffff1673ffffffffffffffffffffffffffffffffffffffff16815260200190815260200160002060003373ffffffffffffffffffffffffffffffffffffffff1673ffffffffffffffffffffffffffffffffffffffff16815260200190815260200160002060006101000a81548160ff021916908315150217905550600460009054906101000a900473ffffffffffffffffffffffffffffffffffffffff1673ffffffffffffffffffffffffffffffffffffffff166343c605448333846040518463ffffffff1660e01b8152600401611e859392919061423d565b600060405180830381600087803b158015611e9f57600080fd5b505af1158015611eb3573d6000803e3d6000fd5b505050508173ffffffffffffffffffffffffffffffffffffffff163373ffffffffffffffffffffffffffffffffffffffff167f0aa4d283470c904c551d18bb894d37e17674920f3261a7f854be501e25f421b783604051611f1491906132b4565b60405180910390a35050565b60008073ffffffffffffffffffffffffffffffffffffffff16600160008573ffffffffffffffffffffffffffffffffffffffff1673ffffffffffffffffffffffffffffffffffffffff16815260200190815260200160002060050160009054906101000a900473ffffffffffffffffffffffffffffffffffffffff1673ffffffffffffffffffffffffffffffffffffffff1603611ff2576040517f08c379a0000000000000000000000000000000000000000000000000000000008152600401611fe9906142c0565b60405180910390fd5b600083905060008173ffffffffffffffffffffffffffffffffffffffff166370a08231336040518263ffffffff1660e01b8152600401612032919061300f565b602060405180830381865afa15801561204f573d6000803e3d6000fd5b505050506040513d601f19601f820116820180604052508101906120739190613aae565b9050838110156120b8576040517f08c379a00000000000000000000000000000000000000000000000000000000081526004016120af9061432c565b60405180910390fd5b60008273ffffffffffffffffffffffffffffffffffffffff166318160ddd6040518163ffffffff1660e01b8152600401602060405180830381865afa158015612105573d6000803e3d6000fd5b505050506040513d601f19601f820116820180604052508101906121299190613aae565b9050600060c88261213a9190613b0a565b9050600061214882886112ae565b905086600260008a73ffffffffffffffffffffffffffffffffffffffff1673ffffffffffffffffffffffffffffffffffffffff16815260200190815260200160002060003373ffffffffffffffffffffffffffffffffffffffff1673ffffffffffffffffffffffffffffffffffffffff168152602001908152602001600020541015612209576040517f08c379a0000000000000000000000000000000000000000000000000000000008152600401612200906143be565b60405180910390fd5b86600260008a73ffffffffffffffffffffffffffffffffffffffff1673ffffffffffffffffffffffffffffffffffffffff16815260200190815260200160002060003373ffffffffffffffffffffffffffffffffffffffff1673ffffffffffffffffffffffffffffffffffffffff16815260200190815260200160002060008282546122959190613b0a565b925050819055508473ffffffffffffffffffffffffffffffffffffffff1663fcd3533c88336040518363ffffffff1660e01b81526004016122d79291906143de565b6020604051808303816000875af11580156122f6573d6000803e3d6000fd5b505050506040513d601f19601f8201168201806040525081019061231a9190613aae565b5060003373ffffffffffffffffffffffffffffffffffffffff168260405161234190614438565b60006040518083038185875af1925050503d806000811461237e576040519150601f19603f3d011682016040523d82523d6000602084013e612383565b606091505b50509050806123c7576040517f08c379a00000000000000000000000000000000000000000000000000000000081526004016123be90614499565b60405180910390fd5b6001965050505050505092915050565b600560009054906101000a900473ffffffffffffffffffffffffffffffffffffffff1681565b6000600360008473ffffffffffffffffffffffffffffffffffffffff1673ffffffffffffffffffffffffffffffffffffffff16815260200190815260200160002060008373ffffffffffffffffffffffffffffffffffffffff1673ffffffffffffffffffffffffffffffffffffffff16815260200190815260200160002060009054906101000a900460ff16905092915050565b60008073ffffffffffffffffffffffffffffffffffffffff16600160008573ffffffffffffffffffffffffffffffffffffffff1673ffffffffffffffffffffffffffffffffffffffff16815260200190815260200160002060050160009054906101000a900473ffffffffffffffffffffffffffffffffffffffff1673ffffffffffffffffffffffffffffffffffffffff1603612563576040517f08c379a000000000000000000000000000000000000000000000000000000000815260040161255a906142c0565b60405180910390fd5b6000600160008573ffffffffffffffffffffffffffffffffffffffff1673ffffffffffffffffffffffffffffffffffffffff1681526020019081526020016000209050600084905060008173ffffffffffffffffffffffffffffffffffffffff166318160ddd6040518163ffffffff1660e01b8152600401602060405180830381865afa1580156125f8573d6000803e3d6000fd5b505050506040513d601f19601f8201168201806040525081019061261c9190613aae565b905060008161271061262e9190613b0a565b905080861115612673576040517f08c379a000000000000000000000000000000000000000000000000000000000815260040161266a90614505565b60405180910390fd5b600060c8836126829190613b0a565b9050600061269082896112ae565b9050803410156126d5576040517f08c379a00000000000000000000000000000000000000000000000000000000081526004016126cc90614571565b60405180910390fd5b87600260008b73ffffffffffffffffffffffffffffffffffffffff1673ffffffffffffffffffffffffffffffffffffffff16815260200190815260200160002060003373ffffffffffffffffffffffffffffffffffffffff1673ffffffffffffffffffffffffffffffffffffffff16815260200190815260200160002060008282546127619190614591565b925050819055503486600401600082825461277c9190614591565b9250508190555067016345785d8a00008660040154101580156127ae57508560060160149054906101000a900460ff16155b156127e4576127bc8961292b565b60018660060160146101000a81548160ff0219169083151502179055506127e3338a612aaf565b5b60018660070160008282546127f99190614591565b925050819055508473ffffffffffffffffffffffffffffffffffffffff166394bf804d89336040518363ffffffff1660e01b815260040161283b9291906143de565b6020604051808303816000875af115801561285a573d6000803e3d6000fd5b505050506040513d601f19601f8201168201806040525081019061287e9190613aae565b506001965050505050505092915050565b61292782826040516024016128a59291906145c5565b6040516020818303038152906040527f319af333000000000000000000000000000000000000000000000000000000007bffffffffffffffffffffffffffffffffffffffffffffffffffffffff19166020820180517bffffffffffffffffffffffffffffffffffffffffffffffffffffffff8381831617835250505050612c4c565b5050565b6000600160008373ffffffffffffffffffffffffffffffffffffffff1673ffffffffffffffffffffffffffffffffffffffff16815260200190815260200160002060040154905060008290508073ffffffffffffffffffffffffffffffffffffffff1663095ea7b3600460009054906101000a900473ffffffffffffffffffffffffffffffffffffffff1660c86040518363ffffffff1660e01b81526004016129d59291906145f5565b6020604051808303816000875af11580156129f4573d6000803e3d6000fd5b505050506040513d601f19601f82011682018060405250810190612a18919061464a565b50600460009054906101000a900473ffffffffffffffffffffffffffffffffffffffff1673ffffffffffffffffffffffffffffffffffffffff166356688700838560c86040518463ffffffff1660e01b8152600401612a789291906145f5565b6000604051808303818588803b158015612a9157600080fd5b505af1158015612aa5573d6000803e3d6000fd5b5050505050505050565b7f000000000000000000000000000000000000000000000000000000000000000073ffffffffffffffffffffffffffffffffffffffff1663624488506040518060c001604052807f3861e061737eaeb8d00f0514d210ad1062bfacdb4bd22d1d1f5ef876ae3a892160001b81526020018573ffffffffffffffffffffffffffffffffffffffff1681526020016040518060400160405280600073ffffffffffffffffffffffffffffffffffffffff16815260200160008152508152602001620186a08152602001600067ffffffffffffffff811115612b9157612b90612dec565b5b604051908082528060200260200182016040528015612bbf5781602001602082028036833780820191505090505b50815260200184604051602001612bd6919061469a565b6040516020818303038152906040528152506040518263ffffffff1660e01b8152600401612c049190614029565b6020604051808303816000875af1158015612c23573d6000803e3d6000fd5b505050506040513d601f19601f82011682018060405250810190612c479190614060565b505050565b612c6381612c5b612c66612c87565b63ffffffff16565b50565b60006a636f6e736f6c652e6c6f679050600080835160208501845afa505050565b612d19819050919050565b611c78806146f883390190565b6040518061012001604052806060815260200160608152602001606081526020016060815260200160008152602001600073ffffffffffffffffffffffffffffffffffffffff168152602001600073ffffffffffffffffffffffffffffffffffffffff168152602001600015158152602001600081525090565b612d216146c8565b565b600073ffffffffffffffffffffffffffffffffffffffff82169050919050565b6000819050919050565b6000612d68612d63612d5e84612d23565b612d43565b612d23565b9050919050565b6000612d7a82612d4d565b9050919050565b6000612d8c82612d6f565b9050919050565b612d9c81612d81565b82525050565b6000602082019050612db76000830184612d93565b92915050565b6000604051905090565b600080fd5b600080fd5b600080fd5b600080fd5b6000601f19601f8301169050919050565b7f4e487b7100000000000000000000000000000000000000000000000000000000600052604160045260246000fd5b612e2482612ddb565b810181811067ffffffffffffffff82111715612e4357612e42612dec565b5b80604052505050565b6000612e56612dbd565b9050612e628282612e1b565b919050565b600067ffffffffffffffff821115612e8257612e81612dec565b5b612e8b82612ddb565b9050602081019050919050565b82818337600083830152505050565b6000612eba612eb584612e67565b612e4c565b905082815260208101848484011115612ed657612ed5612dd6565b5b612ee1848285612e98565b509392505050565b600082601f830112612efe57612efd612dd1565b5b8135612f0e848260208601612ea7565b91505092915050565b60008060008060808587031215612f3157612f30612dc7565b5b600085013567ffffffffffffffff811115612f4f57612f4e612dcc565b5b612f5b87828801612ee9565b945050602085013567ffffffffffffffff811115612f7c57612f7b612dcc565b5b612f8887828801612ee9565b935050604085013567ffffffffffffffff811115612fa957612fa8612dcc565b5b612fb587828801612ee9565b925050606085013567ffffffffffffffff811115612fd657612fd5612dcc565b5b612fe287828801612ee9565b91505092959194509250565b6000612ff982612d23565b9050919050565b61300981612fee565b82525050565b60006020820190506130246000830184613000565b92915050565b61303381612fee565b811461303e57600080fd5b50565b6000813590506130508161302a565b92915050565b60006020828403121561306c5761306b612dc7565b5b600061307a84828501613041565b91505092915050565b600081519050919050565b600082825260208201905092915050565b60005b838110156130bd5780820151818401526020810190506130a2565b60008484015250505050565b60006130d482613083565b6130de818561308e565b93506130ee81856020860161309f565b6130f781612ddb565b840191505092915050565b6000819050919050565b61311581613102565b82525050565b60008115159050919050565b6131308161311b565b82525050565b6000610120820190508181036000830152613151818c6130c9565b90508181036020830152613165818b6130c9565b90508181036040830152613179818a6130c9565b9050818103606083015261318d81896130c9565b905061319c608083018861310c565b6131a960a0830187613000565b6131b660c0830186613000565b6131c360e0830185613127565b6131d161010083018461310c565b9a9950505050505050505050565b6131e881613102565b81146131f357600080fd5b50565b600081359050613205816131df565b92915050565b60006020828403121561322157613220612dc7565b5b600061322f848285016131f6565b91505092915050565b600061324382612d6f565b9050919050565b61325381613238565b82525050565b600060208201905061326e600083018461324a565b92915050565b6000806040838503121561328b5761328a612dc7565b5b600061329985828601613041565b92505060206132aa85828601613041565b9150509250929050565b60006020820190506132c9600083018461310c565b92915050565b60006020820190506132e46000830184613127565b92915050565b6000806040838503121561330157613300612dc7565b5b600061330f858286016131f6565b9250506020613320858286016131f6565b9150509250929050565b600081519050919050565b600082825260208201905092915050565b6000819050602082019050919050565b600082825260208201905092915050565b600061337282613083565b61337c8185613356565b935061338c81856020860161309f565b61339581612ddb565b840191505092915050565b6133a981613102565b82525050565b6133b881612fee565b82525050565b6133c78161311b565b82525050565b60006101208301600083015184820360008601526133eb8282613367565b915050602083015184820360208601526134058282613367565b9150506040830151848203604086015261341f8282613367565b915050606083015184820360608601526134398282613367565b915050608083015161344e60808601826133a0565b5060a083015161346160a08601826133af565b5060c083015161347460c08601826133af565b5060e083015161348760e08601826133be565b5061010083015161349c6101008601826133a0565b508091505092915050565b60006134b383836133cd565b905092915050565b6000602082019050919050565b60006134d38261332a565b6134dd8185613335565b9350836020820285016134ef85613346565b8060005b8581101561352b578484038952815161350c85826134a7565b9450613517836134bb565b925060208a019950506001810190506134f3565b50829750879550505050505092915050565b6000602082019050818103600083015261355781846134c8565b905092915050565b6000819050919050565b6135728161355f565b811461357d57600080fd5b50565b60008135905061358f81613569565b92915050565b600080fd5b600080fd5b60008083601f8401126135b5576135b4612dd1565b5b8235905067ffffffffffffffff8111156135d2576135d1613595565b5b6020830191508360018202830111156135ee576135ed61359a565b5b9250929050565b6000806000806060858703121561360f5761360e612dc7565b5b600061361d87828801613580565b945050602061362e87828801613041565b935050604085013567ffffffffffffffff81111561364f5761364e612dcc565b5b61365b8782880161359f565b925092505092959194509250565b600080604083850312156136805761367f612dc7565b5b600061368e85828601613041565b925050602061369f858286016131f6565b9150509250929050565b60006136b482612d6f565b9050919050565b6136c4816136a9565b82525050565b60006020820190506136df60008301846136bb565b92915050565b600060608201905081810360008301526136ff81866130c9565b9050818103602083015261371381856130c9565b9050613722604083018461310c565b949350505050565b7f4e487b7100000000000000000000000000000000000000000000000000000000600052602260045260246000fd5b6000600282049050600182168061377157607f821691505b6020821081036137845761378361372a565b5b50919050565b60008190508160005260206000209050919050565b60006020601f8301049050919050565b600082821b905092915050565b6000600883026137ec7fffffffffffffffffffffffffffffffffffffffffffffffffffffffffffffffff826137af565b6137f686836137af565b95508019841693508086168417925050509392505050565b600061382961382461381f84613102565b612d43565b613102565b9050919050565b6000819050919050565b6138438361380e565b61385761384f82613830565b8484546137bc565b825550505050565b600090565b61386c61385f565b61387781848461383a565b505050565b5b8181101561389b57613890600082613864565b60018101905061387d565b5050565b601f8211156138e0576138b18161378a565b6138ba8461379f565b810160208510156138c9578190505b6138dd6138d58561379f565b83018261387c565b50505b505050565b600082821c905092915050565b6000613903600019846008026138e5565b1980831691505092915050565b600061391c83836138f2565b9150826002028217905092915050565b61393582613083565b67ffffffffffffffff81111561394e5761394d612dec565b5b6139588254613759565b61396382828561389f565b600060209050601f8311600181146139965760008415613984578287015190505b61398e8582613910565b8655506139f6565b601f1984166139a48661378a565b60005b828110156139cc578489015182556001820191506020850194506020810190506139a7565b868310156139e957848901516139e5601f8916826138f2565b8355505b6001600288020188555050505b505050505050565b7f496e646578206f7574206f6620626f756e647300000000000000000000000000600082015250565b6000613a3460138361308e565b9150613a3f826139fe565b602082019050919050565b60006020820190508181036000830152613a6381613a27565b9050919050565b7f4e487b7100000000000000000000000000000000000000000000000000000000600052603260045260246000fd5b600081519050613aa8816131df565b92915050565b600060208284031215613ac457613ac3612dc7565b5b6000613ad284828501613a99565b91505092915050565b7f4e487b7100000000000000000000000000000000000000000000000000000000600052601160045260246000fd5b6000613b1582613102565b9150613b2083613102565b9250828203905081811115613b3857613b37613adb565b5b92915050565b6000613b4982613102565b9150613b5483613102565b9250828202613b6281613102565b91508282048414831517613b7957613b78613adb565b5b5092915050565b7f4e487b7100000000000000000000000000000000000000000000000000000000600052601260045260246000fd5b6000613bba82613102565b9150613bc583613102565b925082613bd557613bd4613b80565b5b828204905092915050565b6000604082019050613bf5600083018561310c565b613c02602083018461310c565b9392505050565b7f52656365697665724f6e5375626e65743a20756e617574686f72697a6564205460008201527f656c65706f727465724d657373656e6765720000000000000000000000000000602082015250565b6000613c6560328361308e565b9150613c7082613c09565b604082019050919050565b60006020820190508181036000830152613c9481613c58565b9050919050565b6000613ca682612d23565b9050919050565b613cb681613c9b565b8114613cc157600080fd5b50565b600081359050613cd381613cad565b92915050565b60008060408385031215613cf057613cef612dc7565b5b600083013567ffffffffffffffff811115613d0e57613d0d612dcc565b5b613d1a85828601612ee9565b9250506020613d2b85828601613cc4565b9150509250929050565b600081905092915050565b7f4c69717569646974794372656174656400000000000000000000000000000000600082015250565b6000613d76601083613d35565b9150613d8182613d40565b601082019050919050565b6000613d9782613d69565b9150819050919050565b6000613dac82613083565b613db68185613d35565b9350613dc681856020860161309f565b80840191505092915050565b6000613dde8284613da1565b915081905092915050565b7f2070726f636573736564206f6e20746172676574207375626e65742100000000815250565b6000613e1b8284613da1565b9150613e2682613de9565b601c8201915081905092915050565b60006020820190508181036000830152613e4f81846130c9565b905092915050565b613e608161355f565b82525050565b604082016000820151613e7c60008501826133af565b506020820151613e8f60208501826133a0565b50505050565b600081519050919050565b600082825260208201905092915050565b6000819050602082019050919050565b6000613ecd83836133af565b60208301905092915050565b6000602082019050919050565b6000613ef182613e95565b613efb8185613ea0565b9350613f0683613eb1565b8060005b83811015613f37578151613f1e8882613ec1565b9750613f2983613ed9565b925050600181019050613f0a565b5085935050505092915050565b600081519050919050565b600082825260208201905092915050565b6000613f6b82613f44565b613f758185613f4f565b9350613f8581856020860161309f565b613f8e81612ddb565b840191505092915050565b600060e083016000830151613fb16000860182613e57565b506020830151613fc460208601826133af565b506040830151613fd76040860182613e66565b506060830151613fea60808601826133a0565b50608083015184820360a08601526140028282613ee6565b91505060a083015184820360c086015261401c8282613f60565b9150508091505092915050565b600060208201905081810360008301526140438184613f99565b905092915050565b60008151905061405a81613569565b92915050565b60006020828403121561407657614075612dc7565b5b60006140848482850161404b565b91505092915050565b7f4c6971756964697479206e6f7420637265617465642079657400000000000000600082015250565b60006140c360198361308e565b91506140ce8261408d565b602082019050919050565b600060208201905081810360008301526140f2816140b6565b9050919050565b7f52657761726420616c726561647920636c61696d656400000000000000000000600082015250565b600061412f60168361308e565b915061413a826140f9565b602082019050919050565b6000602082019050818103600083015261415e81614122565b9050919050565b7f4e6f20636f6e747269627574696f6e20666f756e640000000000000000000000600082015250565b600061419b60158361308e565b91506141a682614165565b602082019050919050565b600060208201905081810360008301526141ca8161418e565b9050919050565b7f4e6f2072657761726420617661696c61626c6500000000000000000000000000600082015250565b600061420760138361308e565b9150614212826141d1565b602082019050919050565b60006020820190508181036000830152614236816141fa565b9050919050565b60006060820190506142526000830186613000565b61425f6020830185613000565b61426c604083018461310c565b949350505050565b7f546f6b656e206973206e6f74206c697374656400000000000000000000000000600082015250565b60006142aa60138361308e565b91506142b582614274565b602082019050919050565b600060208201905081810360008301526142d98161429d565b9050919050565b7f496e73756666696369656e7420746f6b656e2062616c616e6365000000000000600082015250565b6000614316601a8361308e565b9150614321826142e0565b602082019050919050565b6000602082019050818103600083015261434581614309565b9050919050565b7f43616e6e6f742073656c6c206d6f7265207468616e20636f6e7472696275746560008201527f6400000000000000000000000000000000000000000000000000000000000000602082015250565b60006143a860218361308e565b91506143b38261434c565b604082019050919050565b600060208201905081810360008301526143d78161439b565b9050919050565b60006040820190506143f3600083018561310c565b6144006020830184613000565b9392505050565b600081905092915050565b50565b6000614422600083614407565b915061442d82614412565b600082019050919050565b600061444382614415565b9150819050919050565b7f455448207472616e73666572206661696c656400000000000000000000000000600082015250565b600061448360138361308e565b915061448e8261444d565b602082019050919050565b600060208201905081810360008301526144b281614476565b9050919050565b7f4e6f7420656e6f75676820617661696c61626c6520737570706c790000000000600082015250565b60006144ef601b8361308e565b91506144fa826144b9565b602082019050919050565b6000602082019050818103600083015261451e816144e2565b9050919050565b7f496e636f72726563742045544820616d6f756e742073656e7400000000000000600082015250565b600061455b60198361308e565b915061456682614525565b602082019050919050565b6000602082019050818103600083015261458a8161454e565b9050919050565b600061459c82613102565b91506145a783613102565b92508282019050808211156145bf576145be613adb565b5b92915050565b600060408201905081810360008301526145df81856130c9565b90506145ee6020830184613000565b9392505050565b600060408201905061460a6000830185613000565b614617602083018461310c565b9392505050565b6146278161311b565b811461463257600080fd5b50565b6000815190506146448161461e565b92915050565b6000602082840312156146605761465f612dc7565b5b600061466e84828501614635565b91505092915050565b600061468460108361308e565b915061468f82613d40565b602082019050919050565b600060408201905081810360008301526146b381614677565b90506146c26020830184613000565b92915050565b7f4e487b7100000000000000000000000000000000000000000000000000000000600052605160045260246000fdfe608060405234801561001057600080fd5b50604051611c78380380611c7883398181016040528101906100329190610507565b8282816003908161004391906107a9565b50806004908161005391906107a9565b50505061006633826100af60201b60201c565b33600560006101000a81548173ffffffffffffffffffffffffffffffffffffffff021916908373ffffffffffffffffffffffffffffffffffffffff16021790555050505061099b565b600073ffffffffffffffffffffffffffffffffffffffff168273ffffffffffffffffffffffffffffffffffffffff16036101215760006040517fec442f0500000000000000000000000000000000000000000000000000000000815260040161011891906108bc565b60405180910390fd5b6101336000838361013760201b60201c565b5050565b600073ffffffffffffffffffffffffffffffffffffffff168373ffffffffffffffffffffffffffffffffffffffff160361018957806002600082825461017d9190610906565b9250508190555061025c565b60008060008573ffffffffffffffffffffffffffffffffffffffff1673ffffffffffffffffffffffffffffffffffffffff16815260200190815260200160002054905081811015610215578381836040517fe450d38c00000000000000000000000000000000000000000000000000000000815260040161020c93929190610949565b60405180910390fd5b8181036000808673ffffffffffffffffffffffffffffffffffffffff1673ffffffffffffffffffffffffffffffffffffffff16815260200190815260200160002081905550505b600073ffffffffffffffffffffffffffffffffffffffff168273ffffffffffffffffffffffffffffffffffffffff16036102a557806002600082825403925050819055506102f2565b806000808473ffffffffffffffffffffffffffffffffffffffff1673ffffffffffffffffffffffffffffffffffffffff168152602001908152602001600020600082825401925050819055505b8173ffffffffffffffffffffffffffffffffffffffff168373ffffffffffffffffffffffffffffffffffffffff167fddf252ad1be2c89b69c2b068fc378daa952ba7f163c4a11628f55a4df523b3ef8360405161034f9190610980565b60405180910390a3505050565b6000604051905090565b600080fd5b600080fd5b600080fd5b600080fd5b6000601f19601f8301169050919050565b7f4e487b7100000000000000000000000000000000000000000000000000000000600052604160045260246000fd5b6103c38261037a565b810181811067ffffffffffffffff821117156103e2576103e161038b565b5b80604052505050565b60006103f561035c565b905061040182826103ba565b919050565b600067ffffffffffffffff8211156104215761042061038b565b5b61042a8261037a565b9050602081019050919050565b60005b8381101561045557808201518184015260208101905061043a565b60008484015250505050565b600061047461046f84610406565b6103eb565b9050828152602081018484840111156104905761048f610375565b5b61049b848285610437565b509392505050565b600082601f8301126104b8576104b7610370565b5b81516104c8848260208601610461565b91505092915050565b6000819050919050565b6104e4816104d1565b81146104ef57600080fd5b50565b600081519050610501816104db565b92915050565b6000806000606084860312156105205761051f610366565b5b600084015167ffffffffffffffff81111561053e5761053d61036b565b5b61054a868287016104a3565b935050602084015167ffffffffffffffff81111561056b5761056a61036b565b5b610577868287016104a3565b9250506040610588868287016104f2565b9150509250925092565b600081519050919050565b7f4e487b7100000000000000000000000000000000000000000000000000000000600052602260045260246000fd5b600060028204905060018216806105e457607f821691505b6020821081036105f7576105f661059d565b5b50919050565b60008190508160005260206000209050919050565b60006020601f8301049050919050565b600082821b905092915050565b60006008830261065f7fffffffffffffffffffffffffffffffffffffffffffffffffffffffffffffffff82610622565b6106698683610622565b95508019841693508086168417925050509392505050565b6000819050919050565b60006106a66106a161069c846104d1565b610681565b6104d1565b9050919050565b6000819050919050565b6106c08361068b565b6106d46106cc826106ad565b84845461062f565b825550505050565b600090565b6106e96106dc565b6106f48184846106b7565b505050565b5b818110156107185761070d6000826106e1565b6001810190506106fa565b5050565b601f82111561075d5761072e816105fd565b61073784610612565b81016020851015610746578190505b61075a61075285610612565b8301826106f9565b50505b505050565b600082821c905092915050565b600061078060001984600802610762565b1980831691505092915050565b6000610799838361076f565b9150826002028217905092915050565b6107b282610592565b67ffffffffffffffff8111156107cb576107ca61038b565b5b6107d582546105cc565b6107e082828561071c565b600060209050601f8311600181146108135760008415610801578287015190505b61080b858261078d565b865550610873565b601f198416610821866105fd565b60005b8281101561084957848901518255600182019150602085019450602081019050610824565b868310156108665784890151610862601f89168261076f565b8355505b6001600288020188555050505b505050505050565b600073ffffffffffffffffffffffffffffffffffffffff82169050919050565b60006108a68261087b565b9050919050565b6108b68161089b565b82525050565b60006020820190506108d160008301846108ad565b92915050565b7f4e487b7100000000000000000000000000000000000000000000000000000000600052601160045260246000fd5b6000610911826104d1565b915061091c836104d1565b9250828201905080821115610934576109336108d7565b5b92915050565b610943816104d1565b82525050565b600060608201905061095e60008301866108ad565b61096b602083018561093a565b610978604083018461093a565b949350505050565b6000602082019050610995600083018461093a565b92915050565b6112ce806109aa6000396000f3fe608060405234801561001057600080fd5b50600436106100b45760003560e01c80638da5cb5b116100715780638da5cb5b146101a357806394bf804d146101c157806395d89b41146101f1578063a9059cbb1461020f578063dd62ed3e1461023f578063fcd3533c1461026f576100b4565b806306fdde03146100b9578063095ea7b3146100d757806318160ddd1461010757806323b872dd14610125578063313ce5671461015557806370a0823114610173575b600080fd5b6100c161029f565b6040516100ce9190610dbe565b60405180910390f35b6100f160048036038101906100ec9190610e79565b610331565b6040516100fe9190610ed4565b60405180910390f35b61010f610354565b60405161011c9190610efe565b60405180910390f35b61013f600480360381019061013a9190610f19565b61035e565b60405161014c9190610ed4565b60405180910390f35b61015d61038d565b60405161016a9190610f88565b60405180910390f35b61018d60048036038101906101889190610fa3565b610396565b60405161019a9190610efe565b60405180910390f35b6101ab6103de565b6040516101b89190610fdf565b60405180910390f35b6101db60048036038101906101d69190610ffa565b610404565b6040516101e89190610efe565b60405180910390f35b6101f96104aa565b6040516102069190610dbe565b60405180910390f35b61022960048036038101906102249190610e79565b61053c565b6040516102369190610ed4565b60405180910390f35b6102596004803603810190610254919061103a565b61055f565b6040516102669190610efe565b60405180910390f35b61028960048036038101906102849190610ffa565b6105e6565b6040516102969190610efe565b60405180910390f35b6060600380546102ae906110a9565b80601f01602080910402602001604051908101604052809291908181526020018280546102da906110a9565b80156103275780601f106102fc57610100808354040283529160200191610327565b820191906000526020600020905b81548152906001019060200180831161030a57829003601f168201915b5050505050905090565b60008061033c61068c565b9050610349818585610694565b600191505092915050565b6000600254905090565b60008061036961068c565b90506103768582856106a6565b61038185858561073a565b60019150509392505050565b60006012905090565b60008060008373ffffffffffffffffffffffffffffffffffffffff1673ffffffffffffffffffffffffffffffffffffffff168152602001908152602001600020549050919050565b600560009054906101000a900473ffffffffffffffffffffffffffffffffffffffff1681565b6000600560009054906101000a900473ffffffffffffffffffffffffffffffffffffffff1673ffffffffffffffffffffffffffffffffffffffff163373ffffffffffffffffffffffffffffffffffffffff1614610496576040517f08c379a000000000000000000000000000000000000000000000000000000000815260040161048d9061114c565b60405180910390fd5b6104a0828461082e565b6001905092915050565b6060600480546104b9906110a9565b80601f01602080910402602001604051908101604052809291908181526020018280546104e5906110a9565b80156105325780601f1061050757610100808354040283529160200191610532565b820191906000526020600020905b81548152906001019060200180831161051557829003601f168201915b5050505050905090565b60008061054761068c565b905061055481858561073a565b600191505092915050565b6000600160008473ffffffffffffffffffffffffffffffffffffffff1673ffffffffffffffffffffffffffffffffffffffff16815260200190815260200160002060008373ffffffffffffffffffffffffffffffffffffffff1673ffffffffffffffffffffffffffffffffffffffff16815260200190815260200160002054905092915050565b6000600560009054906101000a900473ffffffffffffffffffffffffffffffffffffffff1673ffffffffffffffffffffffffffffffffffffffff163373ffffffffffffffffffffffffffffffffffffffff1614610678576040517f08c379a000000000000000000000000000000000000000000000000000000000815260040161066f906111de565b60405180910390fd5b61068282846108b0565b6001905092915050565b600033905090565b6106a18383836001610932565b505050565b60006106b2848461055f565b90507fffffffffffffffffffffffffffffffffffffffffffffffffffffffffffffffff81146107345781811015610724578281836040517ffb8f41b200000000000000000000000000000000000000000000000000000000815260040161071b939291906111fe565b60405180910390fd5b61073384848484036000610932565b5b50505050565b600073ffffffffffffffffffffffffffffffffffffffff168373ffffffffffffffffffffffffffffffffffffffff16036107ac5760006040517f96c6fd1e0000000000000000000000000000000000000000000000000000000081526004016107a39190610fdf565b60405180910390fd5b600073ffffffffffffffffffffffffffffffffffffffff168273ffffffffffffffffffffffffffffffffffffffff160361081e5760006040517fec442f050000000000000000000000000000000000000000000000000000000081526004016108159190610fdf565b60405180910390fd5b610829838383610b09565b505050565b600073ffffffffffffffffffffffffffffffffffffffff168273ffffffffffffffffffffffffffffffffffffffff16036108a05760006040517fec442f050000000000000000000000000000000000000000000000000000000081526004016108979190610fdf565b60405180910390fd5b6108ac60008383610b09565b5050565b600073ffffffffffffffffffffffffffffffffffffffff168273ffffffffffffffffffffffffffffffffffffffff16036109225760006040517f96c6fd1e0000000000000000000000000000000000000000000000000000000081526004016109199190610fdf565b60405180910390fd5b61092e82600083610b09565b5050565b600073ffffffffffffffffffffffffffffffffffffffff168473ffffffffffffffffffffffffffffffffffffffff16036109a45760006040517fe602df0500000000000000000000000000000000000000000000000000000000815260040161099b9190610fdf565b60405180910390fd5b600073ffffffffffffffffffffffffffffffffffffffff168373ffffffffffffffffffffffffffffffffffffffff1603610a165760006040517f94280d62000000000000000000000000000000000000000000000000000000008152600401610a0d9190610fdf565b60405180910390fd5b81600160008673ffffffffffffffffffffffffffffffffffffffff1673ffffffffffffffffffffffffffffffffffffffff16815260200190815260200160002060008573ffffffffffffffffffffffffffffffffffffffff1673ffffffffffffffffffffffffffffffffffffffff168152602001908152602001600020819055508015610b03578273ffffffffffffffffffffffffffffffffffffffff168473ffffffffffffffffffffffffffffffffffffffff167f8c5be1e5ebec7d5bd14f71427d1e84f3dd0314c0f7b2291e5b200ac8c7c3b92584604051610afa9190610efe565b60405180910390a35b50505050565b600073ffffffffffffffffffffffffffffffffffffffff168373ffffffffffffffffffffffffffffffffffffffff1603610b5b578060026000828254610b4f9190611264565b92505081905550610c2e565b60008060008573ffffffffffffffffffffffffffffffffffffffff1673ffffffffffffffffffffffffffffffffffffffff16815260200190815260200160002054905081811015610be7578381836040517fe450d38c000000000000000000000000000000000000000000000000000000008152600401610bde939291906111fe565b60405180910390fd5b8181036000808673ffffffffffffffffffffffffffffffffffffffff1673ffffffffffffffffffffffffffffffffffffffff16815260200190815260200160002081905550505b600073ffffffffffffffffffffffffffffffffffffffff168273ffffffffffffffffffffffffffffffffffffffff1603610c775780600260008282540392505081905550610cc4565b806000808473ffffffffffffffffffffffffffffffffffffffff1673ffffffffffffffffffffffffffffffffffffffff168152602001908152602001600020600082825401925050819055505b8173ffffffffffffffffffffffffffffffffffffffff168373ffffffffffffffffffffffffffffffffffffffff167fddf252ad1be2c89b69c2b068fc378daa952ba7f163c4a11628f55a4df523b3ef83604051610d219190610efe565b60405180910390a3505050565b600081519050919050565b600082825260208201905092915050565b60005b83811015610d68578082015181840152602081019050610d4d565b60008484015250505050565b6000601f19601f8301169050919050565b6000610d9082610d2e565b610d9a8185610d39565b9350610daa818560208601610d4a565b610db381610d74565b840191505092915050565b60006020820190508181036000830152610dd88184610d85565b905092915050565b600080fd5b600073ffffffffffffffffffffffffffffffffffffffff82169050919050565b6000610e1082610de5565b9050919050565b610e2081610e05565b8114610e2b57600080fd5b50565b600081359050610e3d81610e17565b92915050565b6000819050919050565b610e5681610e43565b8114610e6157600080fd5b50565b600081359050610e7381610e4d565b92915050565b60008060408385031215610e9057610e8f610de0565b5b6000610e9e85828601610e2e565b9250506020610eaf85828601610e64565b9150509250929050565b60008115159050919050565b610ece81610eb9565b82525050565b6000602082019050610ee96000830184610ec5565b92915050565b610ef881610e43565b82525050565b6000602082019050610f136000830184610eef565b92915050565b600080600060608486031215610f3257610f31610de0565b5b6000610f4086828701610e2e565b9350506020610f5186828701610e2e565b9250506040610f6286828701610e64565b9150509250925092565b600060ff82169050919050565b610f8281610f6c565b82525050565b6000602082019050610f9d6000830184610f79565b92915050565b600060208284031215610fb957610fb8610de0565b5b6000610fc784828501610e2e565b91505092915050565b610fd981610e05565b82525050565b6000602082019050610ff46000830184610fd0565b92915050565b6000806040838503121561101157611010610de0565b5b600061101f85828601610e64565b925050602061103085828601610e2e565b9150509250929050565b6000806040838503121561105157611050610de0565b5b600061105f85828601610e2e565b925050602061107085828601610e2e565b9150509250929050565b7f4e487b7100000000000000000000000000000000000000000000000000000000600052602260045260246000fd5b600060028204905060018216806110c157607f821691505b6020821081036110d4576110d361107a565b5b50919050565b7f4d696e742063616e206f6e6c792062652063616c6c656420627920746865206f60008201527f776e657200000000000000000000000000000000000000000000000000000000602082015250565b6000611136602483610d39565b9150611141826110da565b604082019050919050565b6000602082019050818103600083015261116581611129565b9050919050565b7f4275726e2063616e206f6e6c792062652063616c6c656420627920746865206f60008201527f776e657200000000000000000000000000000000000000000000000000000000602082015250565b60006111c8602483610d39565b91506111d38261116c565b604082019050919050565b600060208201905081810360008301526111f7816111bb565b9050919050565b60006060820190506112136000830186610fd0565b6112206020830185610eef565b61122d6040830184610eef565b949350505050565b7f4e487b7100000000000000000000000000000000000000000000000000000000600052601160045260246000fd5b600061126f82610e43565b915061127a83610e43565b925082820190508082111561129257611291611235565b5b9291505056fea26469706673582212205cd4e63d18cdd047978eab2479064a065b3d6f0a770c69c734cae2c96a5fa29564736f6c634300081900334d656d65546f6b656e2063726561746564207769746820616464726573733a202573a2646970667358221220d86ec5b5e928772f625b52e77c213c18e93c3185c97beb2fd7a60f992b1b94eb64736f6c63430008190033",
  "linkReferences": {},
  "deployedLinkReferences": {}
}