{
  "_format": "hh-sol-artifact-1",
  "contractName": "TokenFactory",
  "sourceName": "contracts/TokenFactory.sol",
  "abi": [
    {
      "inputs": [
        {
          "internalType": "address",
          "name": "_nativeLiquidityPoolAddress",
          "type": "address"
        }
      ],
      "stateMutability": "nonpayable",
      "type": "constructor"
    },
    {
      "anonymous": false,
      "inputs": [
        {
          "indexed": true,
          "internalType": "address",
          "name": "user",
          "type": "address"
        },
        {
          "indexed": true,
          "internalType": "address",
          "name": "tokenAddress",
          "type": "address"
        },
        {
          "indexed": false,
          "internalType": "uint256",
          "name": "amount",
          "type": "uint256"
        }
      ],
      "name": "RewardClaimed",
      "type": "event"
    },
    {
      "inputs": [
        {
          "internalType": "address",
          "name": "",
          "type": "address"
        }
      ],
      "name": "addressToMemeTokenMapping",
      "outputs": [
        {
          "internalType": "string",
          "name": "name",
          "type": "string"
        },
        {
          "internalType": "string",
          "name": "symbol",
          "type": "string"
        },
        {
          "internalType": "string",
          "name": "description",
          "type": "string"
        },
        {
          "internalType": "string",
          "name": "tokenImageUrl",
          "type": "string"
        },
        {
          "internalType": "uint256",
          "name": "fundingRaised",
          "type": "uint256"
        },
        {
          "internalType": "address",
          "name": "tokenAddress",
          "type": "address"
        },
        {
          "internalType": "address",
          "name": "creatorAddress",
          "type": "address"
        },
        {
          "internalType": "bool",
          "name": "isLiquidityCreated",
          "type": "bool"
        },
        {
          "internalType": "uint256",
          "name": "holders",
          "type": "uint256"
        }
      ],
      "stateMutability": "view",
      "type": "function"
    },
    {
      "inputs": [],
      "name": "bondingCurvePrecompile",
      "outputs": [
        {
          "internalType": "contract IBondingCurvePrecompile",
          "name": "",
          "type": "address"
        }
      ],
      "stateMutability": "view",
      "type": "function"
    },
    {
      "inputs": [
        {
          "internalType": "address",
          "name": "memeTokenAddress",
          "type": "address"
        },
        {
          "internalType": "uint256",
          "name": "tokenQty",
          "type": "uint256"
        }
      ],
      "name": "buyMemeToken",
      "outputs": [
        {
          "internalType": "uint256",
          "name": "",
          "type": "uint256"
        }
      ],
      "stateMutability": "payable",
      "type": "function"
    },
    {
      "inputs": [
        {
          "internalType": "address",
          "name": "memeTokenAddress",
          "type": "address"
        },
        {
          "internalType": "address",
          "name": "user",
          "type": "address"
        }
      ],
      "name": "calculateReward",
      "outputs": [
        {
          "internalType": "uint256",
          "name": "",
          "type": "uint256"
        }
      ],
      "stateMutability": "view",
      "type": "function"
    },
    {
      "inputs": [
        {
          "internalType": "address",
          "name": "memeTokenAddress",
          "type": "address"
        }
      ],
      "name": "claimReward",
      "outputs": [],
      "stateMutability": "nonpayable",
      "type": "function"
    },
    {
      "inputs": [
        {
          "internalType": "string",
          "name": "name",
          "type": "string"
        },
        {
          "internalType": "string",
          "name": "symbol",
          "type": "string"
        },
        {
          "internalType": "string",
          "name": "imageUrl",
          "type": "string"
        },
        {
          "internalType": "string",
          "name": "description",
          "type": "string"
        }
      ],
      "name": "createMemeToken",
      "outputs": [
        {
          "internalType": "address",
          "name": "",
          "type": "address"
        }
      ],
      "stateMutability": "nonpayable",
      "type": "function"
    },
    {
      "inputs": [],
      "name": "getAllMemeTokens",
      "outputs": [
        {
          "components": [
            {
              "internalType": "string",
              "name": "name",
              "type": "string"
            },
            {
              "internalType": "string",
              "name": "symbol",
              "type": "string"
            },
            {
              "internalType": "string",
              "name": "description",
              "type": "string"
            },
            {
              "internalType": "string",
              "name": "tokenImageUrl",
              "type": "string"
            },
            {
              "internalType": "uint256",
              "name": "fundingRaised",
              "type": "uint256"
            },
            {
              "internalType": "address",
              "name": "tokenAddress",
              "type": "address"
            },
            {
              "internalType": "address",
              "name": "creatorAddress",
              "type": "address"
            },
            {
              "internalType": "bool",
              "name": "isLiquidityCreated",
              "type": "bool"
            },
            {
              "internalType": "uint256",
              "name": "holders",
              "type": "uint256"
            }
          ],
          "internalType": "struct TokenFactory.memeToken[]",
          "name": "",
          "type": "tuple[]"
        }
      ],
      "stateMutability": "view",
      "type": "function"
    },
    {
      "inputs": [
        {
          "internalType": "uint256",
          "name": "currentSupply",
          "type": "uint256"
        },
        {
          "internalType": "uint256",
          "name": "tokensToBuy",
          "type": "uint256"
        }
      ],
      "name": "getCost",
      "outputs": [
        {
          "internalType": "uint256",
          "name": "",
          "type": "uint256"
        }
      ],
      "stateMutability": "nonpayable",
      "type": "function"
    },
    {
      "inputs": [
        {
          "internalType": "uint256",
          "name": "index",
          "type": "uint256"
        }
      ],
      "name": "getMemeTokenByIndex",
      "outputs": [
        {
          "internalType": "string",
          "name": "",
          "type": "string"
        },
        {
          "internalType": "string",
          "name": "",
          "type": "string"
        },
        {
          "internalType": "string",
          "name": "",
          "type": "string"
        },
        {
          "internalType": "string",
          "name": "",
          "type": "string"
        },
        {
          "internalType": "uint256",
          "name": "",
          "type": "uint256"
        },
        {
          "internalType": "address",
          "name": "",
          "type": "address"
        },
        {
          "internalType": "address",
          "name": "",
          "type": "address"
        },
        {
          "internalType": "bool",
          "name": "",
          "type": "bool"
        },
        {
          "internalType": "uint256",
          "name": "",
          "type": "uint256"
        }
      ],
      "stateMutability": "view",
      "type": "function"
    },
    {
      "inputs": [],
      "name": "getMemeTokenCount",
      "outputs": [
        {
          "internalType": "uint256",
          "name": "",
          "type": "uint256"
        }
      ],
      "stateMutability": "view",
      "type": "function"
    },
    {
      "inputs": [
        {
          "internalType": "address",
          "name": "memeTokenAddress",
          "type": "address"
        },
        {
          "internalType": "address",
          "name": "user",
          "type": "address"
        }
      ],
      "name": "getUserTokenContribution",
      "outputs": [
        {
          "internalType": "uint256",
          "name": "",
          "type": "uint256"
        }
      ],
      "stateMutability": "view",
      "type": "function"
    },
    {
      "inputs": [
        {
          "internalType": "address",
          "name": "",
          "type": "address"
        },
        {
          "internalType": "address",
          "name": "",
          "type": "address"
        }
      ],
      "name": "hasClaimedReward",
      "outputs": [
        {
          "internalType": "bool",
          "name": "",
          "type": "bool"
        }
      ],
      "stateMutability": "view",
      "type": "function"
    },
    {
      "inputs": [
        {
          "internalType": "address",
          "name": "memeTokenAddress",
          "type": "address"
        },
        {
          "internalType": "address",
          "name": "user",
          "type": "address"
        }
      ],
      "name": "hasUserClaimedReward",
      "outputs": [
        {
          "internalType": "bool",
          "name": "",
          "type": "bool"
        }
      ],
      "stateMutability": "view",
      "type": "function"
    },
    {
      "inputs": [
        {
          "internalType": "uint256",
          "name": "",
          "type": "uint256"
        }
      ],
      "name": "memeTokenAddresses",
      "outputs": [
        {
          "internalType": "address",
          "name": "",
          "type": "address"
        }
      ],
      "stateMutability": "view",
      "type": "function"
    },
    {
      "inputs": [],
      "name": "messenger",
      "outputs": [
        {
          "internalType": "contract ITeleporterMessenger",
          "name": "",
          "type": "address"
        }
      ],
      "stateMutability": "view",
      "type": "function"
    },
    {
      "inputs": [],
      "name": "nativeLiquidityPool",
      "outputs": [
        {
          "internalType": "contract NativeLiquidityPool",
          "name": "",
          "type": "address"
        }
      ],
      "stateMutability": "view",
      "type": "function"
    },
    {
      "inputs": [
        {
          "internalType": "bytes32",
          "name": "sourceBlockchainID",
          "type": "bytes32"
        },
        {
          "internalType": "address",
          "name": "originSenderAddress",
          "type": "address"
        },
        {
          "internalType": "bytes",
          "name": "message",
          "type": "bytes"
        }
      ],
      "name": "receiveTeleporterMessage",
      "outputs": [],
      "stateMutability": "nonpayable",
      "type": "function"
    },
    {
      "inputs": [
        {
          "internalType": "address",
          "name": "memeTokenAddress",
          "type": "address"
        },
        {
          "internalType": "uint256",
          "name": "tokenQty",
          "type": "uint256"
        }
      ],
      "name": "sellMemeToken",
      "outputs": [
        {
          "internalType": "uint256",
          "name": "",
          "type": "uint256"
        }
      ],
      "stateMutability": "nonpayable",
      "type": "function"
    },
    {
      "inputs": [
        {
          "internalType": "address",
          "name": "",
          "type": "address"
        },
        {
          "internalType": "address",
          "name": "",
          "type": "address"
        }
      ],
      "name": "userTokenContributions",
      "outputs": [
        {
          "internalType": "uint256",
          "name": "",
          "type": "uint256"
        }
      ],
      "stateMutability": "view",
      "type": "function"
    }
  ],
  "bytecode": "0x60a060405273253b2784c75e510dd0ff1da844684a1ac0aa5fcf608052600580546001600160a01b03191673030000000000000000000000000000000000000217905534801561004e57600080fd5b5060405161383b38038061383b83398101604081905261006d91610092565b600480546001600160a01b0319166001600160a01b03929092169190911790556100c2565b6000602082840312156100a457600080fd5b81516001600160a01b03811681146100bb57600080fd5b9392505050565b6080516137496100f2600039600081816101dd01528181611251015281816113a10152611ef701526137496000f3fe6080604052600436106101145760003560e01c8063a7c18c14116100a0578063d279c19111610064578063d279c1911461038f578063dd5988cd146103af578063de887eb1146103cf578063e27dfaa4146103ef578063e823bfd51461043857600080fd5b8063a7c18c14146102d0578063af62fb5e146102f0578063bcfeed9a14610336578063c77031b414610358578063c868efaa1461036d57600080fd5b80633cb747bf116100e75780633cb747bf146101cb57806347fb20fd146101ff57806360484ef9146102455780637ca44fcf146102655780639aaa546c1461028557600080fd5b8063036e8cab14610119578063075bb17d14610156578063130da9601461017657806313cb5ad6146101ab575b600080fd5b34801561012557600080fd5b50600454610139906001600160a01b031681565b6040516001600160a01b0390911681526020015b60405180910390f35b34801561016257600080fd5b50610139610171366004612178565b61044b565b34801561018257600080fd5b5061019661019136600461223a565b610611565b60405161014d999897969594939291906122a7565b3480156101b757600080fd5b506101396101c636600461232e565b61088b565b3480156101d757600080fd5b506101397f000000000000000000000000000000000000000000000000000000000000000081565b34801561020b57600080fd5b5061023761021a366004612347565b600260209081526000928352604080842090915290825290205481565b60405190815260200161014d565b34801561025157600080fd5b5061019661026036600461232e565b6108b5565b34801561027157600080fd5b50610237610280366004612347565b610c7e565b34801561029157600080fd5b506102c06102a0366004612347565b600360209081526000928352604080842090915290825290205460ff1681565b604051901515815260200161014d565b3480156102dc57600080fd5b506102376102eb366004612380565b610e03565b3480156102fc57600080fd5b5061023761030b366004612347565b6001600160a01b03918216600090815260026020908152604080832093909416825291909152205490565b34801561034257600080fd5b5061034b610e7f565b60405161014d91906123a2565b34801561036457600080fd5b50600054610237565b34801561037957600080fd5b5061038d6103883660046124b0565b611246565b005b34801561039b57600080fd5b5061038d6103aa36600461223a565b6114f1565b3480156103bb57600080fd5b506102376103ca366004612539565b611763565b3480156103db57600080fd5b50600554610139906001600160a01b031681565b3480156103fb57600080fd5b506102c061040a366004612347565b6001600160a01b03918216600090815260036020908152604080832093909416825291909152205460ff1690565b610237610446366004612539565b611acc565b600080858560c860405161045e906120c8565b61046a93929190612565565b604051809103906000f080158015610486573d6000803e3d6000fd5b5060408051610120810182528881526020808201899052818301879052606082018890526000608083018190526001600160a01b03851660a084018190523360c085015260e0840182905261010084018290528154600181810184557f290decd9548b62a8d60345a988386fc84ba6bc95484008f6362f93160ef3e56390910180546001600160a01b0319168317905590825290915291909120815192935083928291908190610536908261261f565b506020820151600182019061054b908261261f565b5060408201516002820190610560908261261f565b5060608201516003820190610575908261261f565b506080820151600482015560a08201516005820180546001600160a01b0319166001600160a01b0392831617905560c083015160068301805460e0860151929093166001600160a81b031990931692909217600160a01b91151591909102179055610100909101516007909101556040805160608101909152602280825261060691906136f2602083013983611dba565b509695505050505050565b60016020526000908152604090208054819061062c9061259b565b80601f01602080910402602001604051908101604052809291908181526020018280546106589061259b565b80156106a55780601f1061067a576101008083540402835291602001916106a5565b820191906000526020600020905b81548152906001019060200180831161068857829003601f168201915b5050505050908060010180546106ba9061259b565b80601f01602080910402602001604051908101604052809291908181526020018280546106e69061259b565b80156107335780601f1061070857610100808354040283529160200191610733565b820191906000526020600020905b81548152906001019060200180831161071657829003601f168201915b5050505050908060020180546107489061259b565b80601f01602080910402602001604051908101604052809291908181526020018280546107749061259b565b80156107c15780601f10610796576101008083540402835291602001916107c1565b820191906000526020600020905b8154815290600101906020018083116107a457829003601f168201915b5050505050908060030180546107d69061259b565b80601f01602080910402602001604051908101604052809291908181526020018280546108029061259b565b801561084f5780601f106108245761010080835404028352916020019161084f565b820191906000526020600020905b81548152906001019060200180831161083257829003601f168201915b50505050600483015460058401546006850154600790950154939491936001600160a01b03918216935090821691600160a01b900460ff169089565b6000818154811061089b57600080fd5b6000918252602090912001546001600160a01b0316905081565b606080606080600080600080600080805490508a106109115760405162461bcd60e51b8152602060048201526013602482015272496e646578206f7574206f6620626f756e647360681b60448201526064015b60405180910390fd5b600060016000808d81548110610929576109296126df565b60009182526020808320909101546001600160a01b031683528201929092526040908101909120815161012081019092528054829082906109699061259b565b80601f01602080910402602001604051908101604052809291908181526020018280546109959061259b565b80156109e25780601f106109b7576101008083540402835291602001916109e2565b820191906000526020600020905b8154815290600101906020018083116109c557829003601f168201915b505050505081526020016001820180546109fb9061259b565b80601f0160208091040260200160405190810160405280929190818152602001828054610a279061259b565b8015610a745780601f10610a4957610100808354040283529160200191610a74565b820191906000526020600020905b815481529060010190602001808311610a5757829003601f168201915b50505050508152602001600282018054610a8d9061259b565b80601f0160208091040260200160405190810160405280929190818152602001828054610ab99061259b565b8015610b065780601f10610adb57610100808354040283529160200191610b06565b820191906000526020600020905b815481529060010190602001808311610ae957829003601f168201915b50505050508152602001600382018054610b1f9061259b565b80601f0160208091040260200160405190810160405280929190818152602001828054610b4b9061259b565b8015610b985780601f10610b6d57610100808354040283529160200191610b98565b820191906000526020600020905b815481529060010190602001808311610b7b57829003601f168201915b50505050508152602001600482015481526020016005820160009054906101000a90046001600160a01b03166001600160a01b03166001600160a01b031681526020016006820160009054906101000a90046001600160a01b03166001600160a01b03166001600160a01b031681526020016006820160149054906101000a900460ff161515151581526020016007820154815250509050806000015181602001518260400151836060015184608001518560a001518660c001518760e00151886101000151995099509950995099509950995099509950509193959799909294969850565b6001600160a01b038216600090815260016020526040812060060154600160a01b900460ff161580610cd557506001600160a01b0380841660009081526003602090815260408083209386168352929052205460ff165b80610d0357506001600160a01b03808416600090815260026020908152604080832093861683529290522054155b15610d1057506000610dfd565b6000839050600060c8826001600160a01b03166318160ddd6040518163ffffffff1660e01b8152600401602060405180830381865afa158015610d57573d6000803e3d6000fd5b505050506040513d601f19601f82011682018060405250810190610d7b91906126f5565b610d859190612724565b6001600160a01b03808716600090815260026020908152604080832093891683529290522054909150610db9826064612737565b6001600160a01b0387166000908152600160205260409020600401548290610de390600390612737565b610ded9190612737565b610df7919061274e565b93505050505b92915050565b6005546040516329f0630560e21b815260048101849052602481018390526000916001600160a01b03169063a7c18c1490604401602060405180830381865afa158015610e54573d6000803e3d6000fd5b505050506040513d601f19601f82011682018060405250810190610e7891906126f5565b9392505050565b600080546060919067ffffffffffffffff811115610e9f57610e9f6120d5565b604051908082528060200260200182016040528015610f3357816020015b610f20604051806101200160405280606081526020016060815260200160608152602001606081526020016000815260200160006001600160a01b0316815260200160006001600160a01b03168152602001600015158152602001600081525090565b815260200190600190039081610ebd5790505b50905060005b6000548110156112405760016000808381548110610f5957610f596126df565b60009182526020808320909101546001600160a01b03168352820192909252604090810190912081516101208101909252805482908290610f999061259b565b80601f0160208091040260200160405190810160405280929190818152602001828054610fc59061259b565b80156110125780601f10610fe757610100808354040283529160200191611012565b820191906000526020600020905b815481529060010190602001808311610ff557829003601f168201915b5050505050815260200160018201805461102b9061259b565b80601f01602080910402602001604051908101604052809291908181526020018280546110579061259b565b80156110a45780601f10611079576101008083540402835291602001916110a4565b820191906000526020600020905b81548152906001019060200180831161108757829003601f168201915b505050505081526020016002820180546110bd9061259b565b80601f01602080910402602001604051908101604052809291908181526020018280546110e99061259b565b80156111365780601f1061110b57610100808354040283529160200191611136565b820191906000526020600020905b81548152906001019060200180831161111957829003601f168201915b5050505050815260200160038201805461114f9061259b565b80601f016020809104026020016040519081016040528092919081815260200182805461117b9061259b565b80156111c85780601f1061119d576101008083540402835291602001916111c8565b820191906000526020600020905b8154815290600101906020018083116111ab57829003601f168201915b50505091835250506004820154602082015260058201546001600160a01b03908116604083015260068301549081166060830152600160a01b900460ff161515608082015260079091015460a090910152825183908390811061122d5761122d6126df565b6020908102919091010152600101610f39565b50919050565b336001600160a01b037f000000000000000000000000000000000000000000000000000000000000000016146112d95760405162461bcd60e51b815260206004820152603260248201527f52656365697665724f6e5375626e65743a20756e617574686f72697a6564205460448201527132b632b837b93a32b926b2b9b9b2b733b2b960711b6064820152608401610908565b6000806112e883850185612770565b6040516f131a5c5d5a591a5d1e50dc99585d195960821b60208201529193509150603001604051602081830303815290604052805190602001208260405160200161133391906127b7565b604051602081830303815290604052805190602001200361137b576001600160a01b0381166000908152600160205260409020600601805460ff60a01b1916600160a01b1790555b60008260405160200161138e91906127d3565b60405160208183030381529060405290507f00000000000000000000000000000000000000000000000000000000000000006001600160a01b031663624488506040518060c001604052808a8152602001896001600160a01b03168152602001604051806040016040528060006001600160a01b0316815260200160008152508152602001620186a08152602001600067ffffffffffffffff811115611436576114366120d5565b60405190808252806020026020018201604052801561145f578160200160208202803683370190505b508152602001846040516020016114769190612814565b6040516020818303038152906040528152506040518263ffffffff1660e01b81526004016114a4919061286c565b6020604051808303816000875af11580156114c3573d6000803e3d6000fd5b505050506040513d601f19601f820116820180604052508101906114e791906126f5565b5050505050505050565b6001600160a01b038116600090815260016020526040902060060154600160a01b900460ff166115635760405162461bcd60e51b815260206004820152601960248201527f4c6971756964697479206e6f74206372656174656420796574000000000000006044820152606401610908565b6001600160a01b038116600090815260036020908152604080832033845290915290205460ff16156115d05760405162461bcd60e51b815260206004820152601660248201527514995dd85c9908185b1c9958591e4818db185a5b595960521b6044820152606401610908565b6001600160a01b03811660009081526002602090815260408083203384529091529020546116385760405162461bcd60e51b8152602060048201526015602482015274139bc818dbdb9d1c9a589d5d1a5bdb88199bdd5b99605a1b6044820152606401610908565b60006116448233610c7e565b90506000811161168c5760405162461bcd60e51b81526020600482015260136024820152724e6f2072657761726420617661696c61626c6560681b6044820152606401610908565b6001600160a01b03828116600081815260036020908152604080832033808552925291829020805460ff191660011790556004805492516310f1815160e21b815290810193909352602483015260448201849052909116906343c6054490606401600060405180830381600087803b15801561170757600080fd5b505af115801561171b573d6000803e3d6000fd5b50506040518381526001600160a01b03851692503391507f0aa4d283470c904c551d18bb894d37e17674920f3261a7f854be501e25f421b79060200160405180910390a35050565b6001600160a01b038281166000908152600160205260408120600501549091166117c55760405162461bcd60e51b8152602060048201526013602482015272151bdad95b881a5cc81b9bdd081b1a5cdd1959606a1b6044820152606401610908565b6040516370a0823160e01b815233600482015283906000906001600160a01b038316906370a0823190602401602060405180830381865afa15801561180e573d6000803e3d6000fd5b505050506040513d601f19601f8201168201806040525081019061183291906126f5565b9050838110156118845760405162461bcd60e51b815260206004820152601a60248201527f496e73756666696369656e7420746f6b656e2062616c616e63650000000000006044820152606401610908565b6000826001600160a01b03166318160ddd6040518163ffffffff1660e01b8152600401602060405180830381865afa1580156118c4573d6000803e3d6000fd5b505050506040513d601f19601f820116820180604052508101906118e891906126f5565b905060006118f760c883612724565b905060006119058288610e03565b6001600160a01b03891660009081526002602090815260408083203384529091529020549091508711156119855760405162461bcd60e51b815260206004820152602160248201527f43616e6e6f742073656c6c206d6f7265207468616e20636f6e747269627574656044820152601960fa1b6064820152608401610908565b6001600160a01b0388166000908152600260209081526040808320338452909152812080548992906119b8908490612724565b9091555050604051633f34d4cf60e21b8152600481018890523360248201526001600160a01b0386169063fcd3533c906044016020604051808303816000875af1158015611a0a573d6000803e3d6000fd5b505050506040513d601f19601f82011682018060405250810190611a2e91906126f5565b50604051600090339083908381818185875af1925050503d8060008114611a71576040519150601f19603f3d011682016040523d82523d6000602084013e611a76565b606091505b5050905080611abd5760405162461bcd60e51b8152602060048201526013602482015272115512081d1c985b9cd9995c8819985a5b1959606a1b6044820152606401610908565b50600198975050505050505050565b6001600160a01b03828116600090815260016020526040812060050154909116611b2e5760405162461bcd60e51b8152602060048201526013602482015272151bdad95b881a5cc81b9bdd081b1a5cdd1959606a1b6044820152606401610908565b6001600160a01b038316600081815260016020908152604080832081516318160ddd60e01b81529151909488949390926318160ddd92600480830193928290030181865afa158015611b84573d6000803e3d6000fd5b505050506040513d601f19601f82011682018060405250810190611ba891906126f5565b90506000611bb882612710612724565b905080861115611c0a5760405162461bcd60e51b815260206004820152601b60248201527f4e6f7420656e6f75676820617661696c61626c6520737570706c7900000000006044820152606401610908565b6000611c1760c884612724565b90506000611c258289610e03565b905080341015611c775760405162461bcd60e51b815260206004820152601960248201527f496e636f72726563742045544820616d6f756e742073656e74000000000000006044820152606401610908565b6001600160a01b0389166000908152600260209081526040808320338452909152812080548a9290611caa9084906128f3565b9250508190555034866004016000828254611cc591906128f3565b9091555050600486015467016345785d8a000011801590611cf257506006860154600160a01b900460ff16155b15611d1f57611d0089611e03565b60068601805460ff60a01b1916600160a01b179055611d1f338a611ef5565b6001866007016000828254611d3491906128f3565b90915550506040516394bf804d60e01b8152600481018990523360248201526001600160a01b038616906394bf804d906044016020604051808303816000875af1158015611d86573d6000803e3d6000fd5b505050506040513d601f19601f82011682018060405250810190611daa91906126f5565b5060019998505050505050505050565b611dff8282604051602401611dd0929190612906565b60408051601f198184030181529190526020810180516001600160e01b031663319af33360e01b17905261209b565b5050565b6001600160a01b03818116600081815260016020526040908190206004908101548154925163095ea7b360e01b8152929094169082015260c8602482015283919063095ea7b3906044016020604051808303816000875af1158015611e6c573d6000803e3d6000fd5b505050506040513d601f19601f82011682018060405250810190611e909190612930565b50600480546040516256688760e81b81526001600160a01b038681169382019390935260c8602482015291169063566887009084906044016000604051808303818588803b158015611ee157600080fd5b505af11580156114e7573d6000803e3d6000fd5b7f00000000000000000000000000000000000000000000000000000000000000006001600160a01b031663624488506040518060c001604052807f3861e061737eaeb8d00f0514d210ad1062bfacdb4bd22d1d1f5ef876ae3a892160001b8152602001856001600160a01b03168152602001604051806040016040528060006001600160a01b0316815260200160008152508152602001620186a08152602001600067ffffffffffffffff811115611faf57611faf6120d5565b604051908082528060200260200182016040528015611fd8578160200160208202803683370190505b50815260200184604051602001612025919060408082526010908201526f131a5c5d5a591a5d1e50dc99585d195960821b60608201526001600160a01b0391909116602082015260800190565b6040516020818303038152906040528152506040518263ffffffff1660e01b8152600401612053919061286c565b6020604051808303816000875af1158015612072573d6000803e3d6000fd5b505050506040513d601f19601f8201168201806040525081019061209691906126f5565b505050565b6120a4816120a7565b50565b60006a636f6e736f6c652e6c6f679050600080835160208501845afa505050565b610d9f8061295383390190565b634e487b7160e01b600052604160045260246000fd5b600082601f8301126120fc57600080fd5b813567ffffffffffffffff80821115612117576121176120d5565b604051601f8301601f19908116603f0116810190828211818310171561213f5761213f6120d5565b8160405283815286602085880101111561215857600080fd5b836020870160208301376000602085830101528094505050505092915050565b6000806000806080858703121561218e57600080fd5b843567ffffffffffffffff808211156121a657600080fd5b6121b2888389016120eb565b955060208701359150808211156121c857600080fd5b6121d4888389016120eb565b945060408701359150808211156121ea57600080fd5b6121f6888389016120eb565b9350606087013591508082111561220c57600080fd5b50612219878288016120eb565b91505092959194509250565b6001600160a01b03811681146120a457600080fd5b60006020828403121561224c57600080fd5b8135610e7881612225565b60005b8381101561227257818101518382015260200161225a565b50506000910152565b60008151808452612293816020860160208601612257565b601f01601f19169290920160200192915050565b60006101208083526122bb8184018d61227b565b905082810360208401526122cf818c61227b565b905082810360408401526122e3818b61227b565b905082810360608401526122f7818a61227b565b608084019890985250506001600160a01b0394851660a08201529290931660c0830152151560e08201526101000152949350505050565b60006020828403121561234057600080fd5b5035919050565b6000806040838503121561235a57600080fd5b823561236581612225565b9150602083013561237581612225565b809150509250929050565b6000806040838503121561239357600080fd5b50508035926020909101359150565b600060208083018184528085518083526040925060408601915060408160051b87010184880160005b838110156124a257603f19898403018552815161012081518186526123f28287018261227b565b915050888201518582038a87015261240a828261227b565b9150508782015185820389870152612422828261227b565b9150506060808301518683038288015261243c838261227b565b92505050608080830151818701525060a080830151612465828801826001600160a01b03169052565b505060c0828101516001600160a01b03169086015260e08083015115159086015261010091820151919094015293860193908601906001016123cb565b509098975050505050505050565b600080600080606085870312156124c657600080fd5b8435935060208501356124d881612225565b9250604085013567ffffffffffffffff808211156124f557600080fd5b818701915087601f83011261250957600080fd5b81358181111561251857600080fd5b88602082850101111561252a57600080fd5b95989497505060200194505050565b6000806040838503121561254c57600080fd5b823561255781612225565b946020939093013593505050565b606081526000612578606083018661227b565b828103602084015261258a818661227b565b915050826040830152949350505050565b600181811c908216806125af57607f821691505b60208210810361124057634e487b7160e01b600052602260045260246000fd5b601f821115612096576000816000526020600020601f850160051c810160208610156125f85750805b601f850160051c820191505b8181101561261757828155600101612604565b505050505050565b815167ffffffffffffffff811115612639576126396120d5565b61264d81612647845461259b565b846125cf565b602080601f831160018114612682576000841561266a5750858301515b600019600386901b1c1916600185901b178555612617565b600085815260208120601f198616915b828110156126b157888601518255948401946001909101908401612692565b50858210156126cf5787850151600019600388901b60f8161c191681555b5050505050600190811b01905550565b634e487b7160e01b600052603260045260246000fd5b60006020828403121561270757600080fd5b5051919050565b634e487b7160e01b600052601160045260246000fd5b81810381811115610dfd57610dfd61270e565b8082028115828204841417610dfd57610dfd61270e565b60008261276b57634e487b7160e01b600052601260045260246000fd5b500490565b6000806040838503121561278357600080fd5b823567ffffffffffffffff81111561279a57600080fd5b6127a6858286016120eb565b925050602083013561237581612225565b600082516127c9818460208701612257565b9190910192915050565b600082516127e5818460208701612257565b7f2070726f636573736564206f6e20746172676574207375626e65742100000000920191825250601c01919050565b602081526000610e78602083018461227b565b60008151808452602080850194506020840160005b838110156128615781516001600160a01b03168752958201959082019060010161283c565b509495945050505050565b60208152815160208201526000602083015160018060a01b03808216604085015260408501519150808251166060850152506020810151608084015250606083015160a0830152608083015160e060c08401526128cd610100840182612827565b905060a0840151601f198483030160e08501526128ea828261227b565b95945050505050565b80820180821115610dfd57610dfd61270e565b604081526000612919604083018561227b565b905060018060a01b03831660208301529392505050565b60006020828403121561294257600080fd5b81518015158114610e7857600080fdfe608060405234801561001057600080fd5b50604051610d9f380380610d9f83398101604081905261002f9161029e565b8282600361003d8382610395565b50600461004a8282610395565b50505061005d338261007760201b60201c565b5050600580546001600160a01b031916331790555061047b565b6001600160a01b0382166100a65760405163ec442f0560e01b8152600060048201526024015b60405180910390fd5b6100b2600083836100b6565b5050565b6001600160a01b0383166100e15780600260008282546100d69190610454565b909155506101539050565b6001600160a01b038316600090815260208190526040902054818110156101345760405163391434e360e21b81526001600160a01b0385166004820152602481018290526044810183905260640161009d565b6001600160a01b03841660009081526020819052604090209082900390555b6001600160a01b03821661016f5760028054829003905561018e565b6001600160a01b03821660009081526020819052604090208054820190555b816001600160a01b0316836001600160a01b03167fddf252ad1be2c89b69c2b068fc378daa952ba7f163c4a11628f55a4df523b3ef836040516101d391815260200190565b60405180910390a3505050565b634e487b7160e01b600052604160045260246000fd5b600082601f83011261020757600080fd5b81516001600160401b0380821115610221576102216101e0565b604051601f8301601f19908116603f01168101908282118183101715610249576102496101e0565b816040528381526020925086602085880101111561026657600080fd5b600091505b83821015610288578582018301518183018401529082019061026b565b6000602085830101528094505050505092915050565b6000806000606084860312156102b357600080fd5b83516001600160401b03808211156102ca57600080fd5b6102d6878388016101f6565b945060208601519150808211156102ec57600080fd5b506102f9868287016101f6565b925050604084015190509250925092565b600181811c9082168061031e57607f821691505b60208210810361033e57634e487b7160e01b600052602260045260246000fd5b50919050565b601f821115610390576000816000526020600020601f850160051c8101602086101561036d5750805b601f850160051c820191505b8181101561038c57828155600101610379565b5050505b505050565b81516001600160401b038111156103ae576103ae6101e0565b6103c2816103bc845461030a565b84610344565b602080601f8311600181146103f757600084156103df5750858301515b600019600386901b1c1916600185901b17855561038c565b600085815260208120601f198616915b8281101561042657888601518255948401946001909101908401610407565b50858210156104445787850151600019600388901b60f8161c191681555b5050505050600190811b01905550565b8082018082111561047557634e487b7160e01b600052601160045260246000fd5b92915050565b6109158061048a6000396000f3fe608060405234801561001057600080fd5b50600436106100b45760003560e01c80638da5cb5b116100715780638da5cb5b1461015757806394bf804d1461018257806395d89b4114610195578063a9059cbb1461019d578063dd62ed3e146101b0578063fcd3533c146101e957600080fd5b806306fdde03146100b9578063095ea7b3146100d757806318160ddd146100fa57806323b872dd1461010c578063313ce5671461011f57806370a082311461012e575b600080fd5b6100c16101fc565b6040516100ce919061073b565b60405180910390f35b6100ea6100e53660046107a6565b61028e565b60405190151581526020016100ce565b6002545b6040519081526020016100ce565b6100ea61011a3660046107d0565b6102a8565b604051601281526020016100ce565b6100fe61013c36600461080c565b6001600160a01b031660009081526020819052604090205490565b60055461016a906001600160a01b031681565b6040516001600160a01b0390911681526020016100ce565b6100fe61019036600461082e565b6102cc565b6100c161034d565b6100ea6101ab3660046107a6565b61035c565b6100fe6101be36600461085a565b6001600160a01b03918216600090815260016020908152604080832093909416825291909152205490565b6100fe6101f736600461082e565b61036a565b60606003805461020b90610884565b80601f016020809104026020016040519081016040528092919081815260200182805461023790610884565b80156102845780601f1061025957610100808354040283529160200191610284565b820191906000526020600020905b81548152906001019060200180831161026757829003601f168201915b5050505050905090565b60003361029c8185856103dd565b60019150505b92915050565b6000336102b68582856103ef565b6102c185858561046d565b506001949350505050565b6005546000906001600160a01b0316331461033a5760405162461bcd60e51b8152602060048201526024808201527f4d696e742063616e206f6e6c792062652063616c6c656420627920746865206f6044820152633bb732b960e11b60648201526084015b60405180910390fd5b61034482846104cc565b50600192915050565b60606004805461020b90610884565b60003361029c81858561046d565b6005546000906001600160a01b031633146103d35760405162461bcd60e51b8152602060048201526024808201527f4275726e2063616e206f6e6c792062652063616c6c656420627920746865206f6044820152633bb732b960e11b6064820152608401610331565b6103448284610506565b6103ea838383600161053c565b505050565b6001600160a01b038381166000908152600160209081526040808320938616835292905220546000198114610467578181101561045857604051637dc7a0d960e11b81526001600160a01b03841660048201526024810182905260448101839052606401610331565b6104678484848403600061053c565b50505050565b6001600160a01b03831661049757604051634b637e8f60e11b815260006004820152602401610331565b6001600160a01b0382166104c15760405163ec442f0560e01b815260006004820152602401610331565b6103ea838383610611565b6001600160a01b0382166104f65760405163ec442f0560e01b815260006004820152602401610331565b61050260008383610611565b5050565b6001600160a01b03821661053057604051634b637e8f60e11b815260006004820152602401610331565b61050282600083610611565b6001600160a01b0384166105665760405163e602df0560e01b815260006004820152602401610331565b6001600160a01b03831661059057604051634a1406b160e11b815260006004820152602401610331565b6001600160a01b038085166000908152600160209081526040808320938716835292905220829055801561046757826001600160a01b0316846001600160a01b03167f8c5be1e5ebec7d5bd14f71427d1e84f3dd0314c0f7b2291e5b200ac8c7c3b9258460405161060391815260200190565b60405180910390a350505050565b6001600160a01b03831661063c57806002600082825461063191906108be565b909155506106ae9050565b6001600160a01b0383166000908152602081905260409020548181101561068f5760405163391434e360e21b81526001600160a01b03851660048201526024810182905260448101839052606401610331565b6001600160a01b03841660009081526020819052604090209082900390555b6001600160a01b0382166106ca576002805482900390556106e9565b6001600160a01b03821660009081526020819052604090208054820190555b816001600160a01b0316836001600160a01b03167fddf252ad1be2c89b69c2b068fc378daa952ba7f163c4a11628f55a4df523b3ef8360405161072e91815260200190565b60405180910390a3505050565b60006020808352835180602085015260005b818110156107695785810183015185820160400152820161074d565b506000604082860101526040601f19601f8301168501019250505092915050565b80356001600160a01b03811681146107a157600080fd5b919050565b600080604083850312156107b957600080fd5b6107c28361078a565b946020939093013593505050565b6000806000606084860312156107e557600080fd5b6107ee8461078a565b92506107fc6020850161078a565b9150604084013590509250925092565b60006020828403121561081e57600080fd5b6108278261078a565b9392505050565b6000806040838503121561084157600080fd5b823591506108516020840161078a565b90509250929050565b6000806040838503121561086d57600080fd5b6108768361078a565b91506108516020840161078a565b600181811c9082168061089857607f821691505b6020821081036108b857634e487b7160e01b600052602260045260246000fd5b50919050565b808201808211156102a257634e487b7160e01b600052601160045260246000fdfea2646970667358221220c428529149af0581f96a52813b8b8266c8aae04069636b35806877e6b324655364736f6c634300081900334d656d65546f6b656e2063726561746564207769746820616464726573733a202573a26469706673582212204eefb39c34abde060ff110469d0d81f4d775cf4c0b0306cb987d1a4ba3aac8b064736f6c63430008190033",
  "linkReferences": {},
  "deployedLinkReferences": {}
}