{"contracts/Faucet.sol":{"Faucet":{"abi":[{"inputs":[{"internalType":"uint256","name":"remainingTime","type":"uint256"}],"name":"CooldownNotExpired","type":"error"},{"inputs":[],"name":"FaucetDrainFailed","type":"error"},{"inputs":[],"name":"InsufficientFaucetBalance","type":"error"},{"inputs":[],"name":"InvalidReceiver","type":"error"},{"anonymous":false,"inputs":[{"indexed":true,"internalType":"address","name":"recipient","type":"address"},{"indexed":false,"internalType":"uint256","name":"amount","type":"uint256"},{"indexed":false,"internalType":"uint256","name":"timestamp","type":"uint256"}],"name":"FaucetClaimed","type":"event"},{"inputs":[],"name":"COOLDOWN_TIME","outputs":[{"internalType":"uint256","name":"","type":"uint256"}],"stateMutability":"view","type":"function"},{"inputs":[],"name":"FAUCET_AMOUNT","outputs":[{"internalType":"uint256","name":"","type":"uint256"}],"stateMutability":"view","type":"function"},{"inputs":[{"internalType":"address","name":"receiver","type":"address"}],"name":"claimTokens","outputs":[],"stateMutability":"nonpayable","type":"function"},{"inputs":[{"internalType":"address","name":"user","type":"address"}],"name":"getRemainingCooldown","outputs":[{"internalType":"uint256","name":"","type":"uint256"}],"stateMutability":"view","type":"function"},{"inputs":[{"internalType":"address","name":"","type":"address"}],"name":"lastFaucetTime","outputs":[{"internalType":"uint256","name":"","type":"uint256"}],"stateMutability":"view","type":"function"},{"stateMutability":"payable","type":"receive"}],"evm":{"bytecode":{"linkReferences":{},"object":"6080604052348015600f57600080fd5b506103cf8061001f6000396000f3fe60806040526004361061004e5760003560e01c8063766976401461005a5780637bc1f6cc146100885780637d263245146100b5578063df8de3e7146100cc578063e6f3e004146100ee57600080fd5b3661005557005b600080fd5b34801561006657600080fd5b50610076670de0b6b3a764000081565b60405190815260200160405180910390f35b34801561009457600080fd5b506100766100a336600461032d565b60006020819052908152604090205481565b3480156100c157600080fd5b506100766201518081565b3480156100d857600080fd5b506100ec6100e736600461032d565b61010e565b005b3480156100fa57600080fd5b5061007661010936600461032d565b6102bf565b6001600160a01b03811661013557604051631e4ec46b60e01b815260040160405180910390fd5b6001600160a01b03811660009081526020819052604090205461015c906201518090610373565b4210156101be576001600160a01b038116600090815260208190526040812054429061018c906201518090610373565b6101969190610386565b905080604051634263cbc360e01b81526004016101b591815260200190565b60405180910390fd5b670de0b6b3a76400004710156101e7576040516325bab55360e01b815260040160405180910390fd5b6001600160a01b03811660008181526020819052604080822042905551909190670de0b6b3a7640000908381818185875af1925050503d8060008114610249576040519150601f19603f3d011682016040523d82523d6000602084013e61024e565b606091505b5050905080610270576040516338665f4b60e11b815260040160405180910390fd5b60408051670de0b6b3a764000081524260208201526001600160a01b038416917fa19a7d2b5bf6a987a66e0eac8a6eb2dbd34ae6a43285849af788b224268ec022910160405180910390a25050565b6001600160a01b0381166000908152602081905260408120546102e6906201518090610373565b42106102f457506000919050565b6001600160a01b038216600090815260208190526040902054429061031d906201518090610373565b6103279190610386565b92915050565b60006020828403121561033f57600080fd5b81356001600160a01b038116811461035657600080fd5b9392505050565b634e487b7160e01b600052601160045260246000fd5b808201808211156103275761032761035d565b818103818111156103275761032761035d56fea264697066735822122060ec5f7b7a1e41b917dc72b73ec92b5c9e8cbca99dcbc5971dc9fc840563bbc264736f6c634300081c0033","opcodes":"PUSH1 0x80 PUSH1 0x40 MSTORE CALLVALUE DUP1 ISZERO PUSH1 0xF JUMPI PUSH1 0x0 DUP1 REVERT JUMPDEST POP PUSH2 0x3CF DUP1 PUSH2 0x1F PUSH1 0x0 CODECOPY PUSH1 0x0 RETURN INVALID PUSH1 0x80 PUSH1 0x40 MSTORE PUSH1 0x4 CALLDATASIZE LT PUSH2 0x4E JUMPI PUSH1 0x0 CALLDATALOAD PUSH1 0xE0 SHR DUP1 PUSH4 0x76697640 EQ PUSH2 0x5A JUMPI DUP1 PUSH4 0x7BC1F6CC EQ PUSH2 0x88 JUMPI DUP1 PUSH4 0x7D263245 EQ PUSH2 0xB5 JUMPI DUP1 PUSH4 0xDF8DE3E7 EQ PUSH2 0xCC JUMPI DUP1 PUSH4 0xE6F3E004 EQ PUSH2 0xEE JUMPI PUSH1 0x0 DUP1 REVERT JUMPDEST CALLDATASIZE PUSH2 0x55 JUMPI STOP JUMPDEST PUSH1 0x0 DUP1 REVERT JUMPDEST CALLVALUE DUP1 ISZERO PUSH2 0x66 JUMPI PUSH1 0x0 DUP1 REVERT JUMPDEST POP PUSH2 0x76 PUSH8 0xDE0B6B3A7640000 DUP2 JUMP JUMPDEST PUSH1 0x40 MLOAD SWAP1 DUP2 MSTORE PUSH1 0x20 ADD PUSH1 0x40 MLOAD DUP1 SWAP2 SUB SWAP1 RETURN JUMPDEST CALLVALUE DUP1 ISZERO PUSH2 0x94 JUMPI PUSH1 0x0 DUP1 REVERT JUMPDEST POP PUSH2 0x76 PUSH2 0xA3 CALLDATASIZE PUSH1 0x4 PUSH2 0x32D JUMP JUMPDEST PUSH1 0x0 PUSH1 0x20 DUP2 SWAP1 MSTORE SWAP1 DUP2 MSTORE PUSH1 0x40 SWAP1 KECCAK256 SLOAD DUP2 JUMP JUMPDEST CALLVALUE DUP1 ISZERO PUSH2 0xC1 JUMPI PUSH1 0x0 DUP1 REVERT JUMPDEST POP PUSH2 0x76 PUSH3 0x15180 DUP2 JUMP JUMPDEST CALLVALUE DUP1 ISZERO PUSH2 0xD8 JUMPI PUSH1 0x0 DUP1 REVERT JUMPDEST POP PUSH2 0xEC PUSH2 0xE7 CALLDATASIZE PUSH1 0x4 PUSH2 0x32D JUMP JUMPDEST PUSH2 0x10E JUMP JUMPDEST STOP JUMPDEST CALLVALUE DUP1 ISZERO PUSH2 0xFA JUMPI PUSH1 0x0 DUP1 REVERT JUMPDEST POP PUSH2 0x76 PUSH2 0x109 CALLDATASIZE PUSH1 0x4 PUSH2 0x32D JUMP JUMPDEST PUSH2 0x2BF JUMP JUMPDEST PUSH1 0x1 PUSH1 0x1 PUSH1 0xA0 SHL SUB DUP2 AND PUSH2 0x135 JUMPI PUSH1 0x40 MLOAD PUSH4 0x1E4EC46B PUSH1 0xE0 SHL DUP2 MSTORE PUSH1 0x4 ADD PUSH1 0x40 MLOAD DUP1 SWAP2 SUB SWAP1 REVERT JUMPDEST PUSH1 0x1 PUSH1 0x1 PUSH1 0xA0 SHL SUB DUP2 AND PUSH1 0x0 SWAP1 DUP2 MSTORE PUSH1 0x20 DUP2 SWAP1 MSTORE PUSH1 0x40 SWAP1 KECCAK256 SLOAD PUSH2 0x15C SWAP1 PUSH3 0x15180 SWAP1 PUSH2 0x373 JUMP JUMPDEST TIMESTAMP LT ISZERO PUSH2 0x1BE JUMPI PUSH1 0x1 PUSH1 0x1 PUSH1 0xA0 SHL SUB DUP2 AND PUSH1 0x0 SWAP1 DUP2 MSTORE PUSH1 0x20 DUP2 SWAP1 MSTORE PUSH1 0x40 DUP2 KECCAK256 SLOAD TIMESTAMP SWAP1 PUSH2 0x18C SWAP1 PUSH3 0x15180 SWAP1 PUSH2 0x373 JUMP JUMPDEST PUSH2 0x196 SWAP2 SWAP1 PUSH2 0x386 JUMP JUMPDEST SWAP1 POP DUP1 PUSH1 0x40 MLOAD PUSH4 0x4263CBC3 PUSH1 0xE0 SHL DUP2 MSTORE PUSH1 0x4 ADD PUSH2 0x1B5 SWAP2 DUP2 MSTORE PUSH1 0x20 ADD SWAP1 JUMP JUMPDEST PUSH1 0x40 MLOAD DUP1 SWAP2 SUB SWAP1 REVERT JUMPDEST PUSH8 0xDE0B6B3A7640000 SELFBALANCE LT ISZERO PUSH2 0x1E7 JUMPI PUSH1 0x40 MLOAD PUSH4 0x25BAB553 PUSH1 0xE0 SHL DUP2 MSTORE PUSH1 0x4 ADD PUSH1 0x40 MLOAD DUP1 SWAP2 SUB SWAP1 REVERT JUMPDEST PUSH1 0x1 PUSH1 0x1 PUSH1 0xA0 SHL SUB DUP2 AND PUSH1 0x0 DUP2 DUP2 MSTORE PUSH1 0x20 DUP2 SWAP1 MSTORE PUSH1 0x40 DUP1 DUP3 KECCAK256 TIMESTAMP SWAP1 SSTORE MLOAD SWAP1 SWAP2 SWAP1 PUSH8 0xDE0B6B3A7640000 SWAP1 DUP4 DUP2 DUP2 DUP2 DUP6 DUP8 GAS CALL SWAP3 POP POP POP RETURNDATASIZE DUP1 PUSH1 0x0 DUP2 EQ PUSH2 0x249 JUMPI PUSH1 0x40 MLOAD SWAP2 POP PUSH1 0x1F NOT PUSH1 0x3F RETURNDATASIZE ADD AND DUP3 ADD PUSH1 0x40 MSTORE RETURNDATASIZE DUP3 MSTORE RETURNDATASIZE PUSH1 0x0 PUSH1 0x20 DUP5 ADD RETURNDATACOPY PUSH2 0x24E JUMP JUMPDEST PUSH1 0x60 SWAP2 POP JUMPDEST POP POP SWAP1 POP DUP1 PUSH2 0x270 JUMPI PUSH1 0x40 MLOAD PUSH4 0x38665F4B PUSH1 0xE1 SHL DUP2 MSTORE PUSH1 0x4 ADD PUSH1 0x40 MLOAD DUP1 SWAP2 SUB SWAP1 REVERT JUMPDEST PUSH1 0x40 DUP1 MLOAD PUSH8 0xDE0B6B3A7640000 DUP2 MSTORE TIMESTAMP PUSH1 0x20 DUP3 ADD MSTORE PUSH1 0x1 PUSH1 0x1 PUSH1 0xA0 SHL SUB DUP5 AND SWAP2 PUSH32 0xA19A7D2B5BF6A987A66E0EAC8A6EB2DBD34AE6A43285849AF788B224268EC022 SWAP2 ADD PUSH1 0x40 MLOAD DUP1 SWAP2 SUB SWAP1 LOG2 POP POP JUMP JUMPDEST PUSH1 0x1 PUSH1 0x1 PUSH1 0xA0 SHL SUB DUP2 AND PUSH1 0x0 SWAP1 DUP2 MSTORE PUSH1 0x20 DUP2 SWAP1 MSTORE PUSH1 0x40 DUP2 KECCAK256 SLOAD PUSH2 0x2E6 SWAP1 PUSH3 0x15180 SWAP1 PUSH2 0x373 JUMP JUMPDEST TIMESTAMP LT PUSH2 0x2F4 JUMPI POP PUSH1 0x0 SWAP2 SWAP1 POP JUMP JUMPDEST PUSH1 0x1 PUSH1 0x1 PUSH1 0xA0 SHL SUB DUP3 AND PUSH1 0x0 SWAP1 DUP2 MSTORE PUSH1 0x20 DUP2 SWAP1 MSTORE PUSH1 0x40 SWAP1 KECCAK256 SLOAD TIMESTAMP SWAP1 PUSH2 0x31D SWAP1 PUSH3 0x15180 SWAP1 PUSH2 0x373 JUMP JUMPDEST PUSH2 0x327 SWAP2 SWAP1 PUSH2 0x386 JUMP JUMPDEST SWAP3 SWAP2 POP POP JUMP JUMPDEST PUSH1 0x0 PUSH1 0x20 DUP3 DUP5 SUB SLT ISZERO PUSH2 0x33F JUMPI PUSH1 0x0 DUP1 REVERT JUMPDEST DUP2 CALLDATALOAD PUSH1 0x1 PUSH1 0x1 PUSH1 0xA0 SHL SUB DUP2 AND DUP2 EQ PUSH2 0x356 JUMPI PUSH1 0x0 DUP1 REVERT JUMPDEST SWAP4 SWAP3 POP POP POP JUMP JUMPDEST PUSH4 0x4E487B71 PUSH1 0xE0 SHL PUSH1 0x0 MSTORE PUSH1 0x11 PUSH1 0x4 MSTORE PUSH1 0x24 PUSH1 0x0 REVERT JUMPDEST DUP1 DUP3 ADD DUP1 DUP3 GT ISZERO PUSH2 0x327 JUMPI PUSH2 0x327 PUSH2 0x35D JUMP JUMPDEST DUP2 DUP2 SUB DUP2 DUP2 GT ISZERO PUSH2 0x327 JUMPI PUSH2 0x327 PUSH2 0x35D JUMP INVALID LOG2 PUSH5 0x6970667358 0x22 SLT KECCAK256 PUSH1 0xEC PUSH0 PUSH28 0x7A1E41B917DC72B73EC92B5C9E8CBCA99DCBC5971DC9FC840563BBC2 PUSH5 0x736F6C6343 STOP ADDMOD SHR STOP CALLER "},"methodIdentifiers":{"COOLDOWN_TIME()":"7d263245","FAUCET_AMOUNT()":"76697640","claimTokens(address)":"df8de3e7","getRemainingCooldown(address)":"e6f3e004","lastFaucetTime(address)":"7bc1f6cc"}}}}}