{
  "_format": "hh-sol-artifact-1",
  "contractName": "Token",
  "sourceName": "contracts/Token.sol",
  "abi": [
    {
      "inputs": [
        {
          "internalType": "string",
          "name": "name",
          "type": "string"
        },
        {
          "internalType": "string",
          "name": "symbol",
          "type": "string"
        },
        {
          "internalType": "uint256",
          "name": "initialMintValue",
          "type": "uint256"
        }
      ],
      "stateMutability": "nonpayable",
      "type": "constructor"
    },
    {
      "inputs": [
        {
          "internalType": "address",
          "name": "spender",
          "type": "address"
        },
        {
          "internalType": "uint256",
          "name": "allowance",
          "type": "uint256"
        },
        {
          "internalType": "uint256",
          "name": "needed",
          "type": "uint256"
        }
      ],
      "name": "ERC20InsufficientAllowance",
      "type": "error"
    },
    {
      "inputs": [
        {
          "internalType": "address",
          "name": "sender",
          "type": "address"
        },
        {
          "internalType": "uint256",
          "name": "balance",
          "type": "uint256"
        },
        {
          "internalType": "uint256",
          "name": "needed",
          "type": "uint256"
        }
      ],
      "name": "ERC20InsufficientBalance",
      "type": "error"
    },
    {
      "inputs": [
        {
          "internalType": "address",
          "name": "approver",
          "type": "address"
        }
      ],
      "name": "ERC20InvalidApprover",
      "type": "error"
    },
    {
      "inputs": [
        {
          "internalType": "address",
          "name": "receiver",
          "type": "address"
        }
      ],
      "name": "ERC20InvalidReceiver",
      "type": "error"
    },
    {
      "inputs": [
        {
          "internalType": "address",
          "name": "sender",
          "type": "address"
        }
      ],
      "name": "ERC20InvalidSender",
      "type": "error"
    },
    {
      "inputs": [
        {
          "internalType": "address",
          "name": "spender",
          "type": "address"
        }
      ],
      "name": "ERC20InvalidSpender",
      "type": "error"
    },
    {
      "anonymous": false,
      "inputs": [
        {
          "indexed": true,
          "internalType": "address",
          "name": "owner",
          "type": "address"
        },
        {
          "indexed": true,
          "internalType": "address",
          "name": "spender",
          "type": "address"
        },
        {
          "indexed": false,
          "internalType": "uint256",
          "name": "value",
          "type": "uint256"
        }
      ],
      "name": "Approval",
      "type": "event"
    },
    {
      "anonymous": false,
      "inputs": [
        {
          "indexed": true,
          "internalType": "address",
          "name": "from",
          "type": "address"
        },
        {
          "indexed": true,
          "internalType": "address",
          "name": "to",
          "type": "address"
        },
        {
          "indexed": false,
          "internalType": "uint256",
          "name": "value",
          "type": "uint256"
        }
      ],
      "name": "Transfer",
      "type": "event"
    },
    {
      "inputs": [
        {
          "internalType": "address",
          "name": "owner",
          "type": "address"
        },
        {
          "internalType": "address",
          "name": "spender",
          "type": "address"
        }
      ],
      "name": "allowance",
      "outputs": [
        {
          "internalType": "uint256",
          "name": "",
          "type": "uint256"
        }
      ],
      "stateMutability": "view",
      "type": "function"
    },
    {
      "inputs": [
        {
          "internalType": "address",
          "name": "spender",
          "type": "address"
        },
        {
          "internalType": "uint256",
          "name": "value",
          "type": "uint256"
        }
      ],
      "name": "approve",
      "outputs": [
        {
          "internalType": "bool",
          "name": "",
          "type": "bool"
        }
      ],
      "stateMutability": "nonpayable",
      "type": "function"
    },
    {
      "inputs": [
        {
          "internalType": "address",
          "name": "account",
          "type": "address"
        }
      ],
      "name": "balanceOf",
      "outputs": [
        {
          "internalType": "uint256",
          "name": "",
          "type": "uint256"
        }
      ],
      "stateMutability": "view",
      "type": "function"
    },
    {
      "inputs": [
        {
          "internalType": "uint256",
          "name": "burnQty",
          "type": "uint256"
        },
        {
          "internalType": "address",
          "name": "from",
          "type": "address"
        }
      ],
      "name": "burn",
      "outputs": [
        {
          "internalType": "uint256",
          "name": "",
          "type": "uint256"
        }
      ],
      "stateMutability": "nonpayable",
      "type": "function"
    },
    {
      "inputs": [],
      "name": "decimals",
      "outputs": [
        {
          "internalType": "uint8",
          "name": "",
          "type": "uint8"
        }
      ],
      "stateMutability": "view",
      "type": "function"
    },
    {
      "inputs": [
        {
          "internalType": "uint256",
          "name": "mintQty",
          "type": "uint256"
        },
        {
          "internalType": "address",
          "name": "receiver",
          "type": "address"
        }
      ],
      "name": "mint",
      "outputs": [
        {
          "internalType": "uint256",
          "name": "",
          "type": "uint256"
        }
      ],
      "stateMutability": "nonpayable",
      "type": "function"
    },
    {
      "inputs": [],
      "name": "name",
      "outputs": [
        {
          "internalType": "string",
          "name": "",
          "type": "string"
        }
      ],
      "stateMutability": "view",
      "type": "function"
    },
    {
      "inputs": [],
      "name": "owner",
      "outputs": [
        {
          "internalType": "address",
          "name": "",
          "type": "address"
        }
      ],
      "stateMutability": "view",
      "type": "function"
    },
    {
      "inputs": [],
      "name": "symbol",
      "outputs": [
        {
          "internalType": "string",
          "name": "",
          "type": "string"
        }
      ],
      "stateMutability": "view",
      "type": "function"
    },
    {
      "inputs": [],
      "name": "totalSupply",
      "outputs": [
        {
          "internalType": "uint256",
          "name": "",
          "type": "uint256"
        }
      ],
      "stateMutability": "view",
      "type": "function"
    },
    {
      "inputs": [
        {
          "internalType": "address",
          "name": "to",
          "type": "address"
        },
        {
          "internalType": "uint256",
          "name": "value",
          "type": "uint256"
        }
      ],
      "name": "transfer",
      "outputs": [
        {
          "internalType": "bool",
          "name": "",
          "type": "bool"
        }
      ],
      "stateMutability": "nonpayable",
      "type": "function"
    },
    {
      "inputs": [
        {
          "internalType": "address",
          "name": "from",
          "type": "address"
        },
        {
          "internalType": "address",
          "name": "to",
          "type": "address"
        },
        {
          "internalType": "uint256",
          "name": "value",
          "type": "uint256"
        }
      ],
      "name": "transferFrom",
      "outputs": [
        {
          "internalType": "bool",
          "name": "",
          "type": "bool"
        }
      ],
      "stateMutability": "nonpayable",
      "type": "function"
    }
  ],
  "bytecode": "0x608060405234801561001057600080fd5b50604051610d9d380380610d9d83398101604081905261002f91610299565b8282600361003d8382610394565b50600461004a8282610394565b50505061005d338261007760201b60201c565b5050600580546001600160a01b0319163317905550610479565b6001600160a01b0382166100a65760405163ec442f0560e01b8152600060048201526024015b60405180910390fd5b6100b2600083836100b6565b5050565b6001600160a01b0383166100e15780600260008282546100d69190610452565b909155506101539050565b6001600160a01b038316600090815260208190526040902054818110156101345760405163391434e360e21b81526001600160a01b0385166004820152602481018290526044810183905260640161009d565b6001600160a01b03841660009081526020819052604090209082900390555b6001600160a01b03821661016f5760028054829003905561018e565b6001600160a01b03821660009081526020819052604090208054820190555b816001600160a01b0316836001600160a01b03167fddf252ad1be2c89b69c2b068fc378daa952ba7f163c4a11628f55a4df523b3ef836040516101d391815260200190565b60405180910390a3505050565b634e487b7160e01b600052604160045260246000fd5b600082601f83011261020757600080fd5b81516001600160401b03811115610220576102206101e0565b604051601f8201601f19908116603f011681016001600160401b038111828210171561024e5761024e6101e0565b60405281815283820160200185101561026657600080fd5b60005b8281101561028557602081860181015183830182015201610269565b506000918101602001919091529392505050565b6000806000606084860312156102ae57600080fd5b83516001600160401b038111156102c457600080fd5b6102d0868287016101f6565b602086015190945090506001600160401b038111156102ee57600080fd5b6102fa868287016101f6565b925050604084015190509250925092565b600181811c9082168061031f57607f821691505b60208210810361033f57634e487b7160e01b600052602260045260246000fd5b50919050565b601f82111561038f57806000526020600020601f840160051c8101602085101561036c5750805b601f840160051c820191505b8181101561038c5760008155600101610378565b50505b505050565b81516001600160401b038111156103ad576103ad6101e0565b6103c1816103bb845461030b565b84610345565b6020601f8211600181146103f557600083156103dd5750848201515b600019600385901b1c1916600184901b17845561038c565b600084815260208120601f198516915b828110156104255787850151825560209485019460019092019101610405565b50848210156104435786840151600019600387901b60f8161c191681555b50505050600190811b01905550565b8082018082111561047357634e487b7160e01b600052601160045260246000fd5b92915050565b610915806104886000396000f3fe608060405234801561001057600080fd5b50600436106100b45760003560e01c80638da5cb5b116100715780638da5cb5b1461015757806394bf804d1461018257806395d89b4114610195578063a9059cbb1461019d578063dd62ed3e146101b0578063fcd3533c146101e957600080fd5b806306fdde03146100b9578063095ea7b3146100d757806318160ddd146100fa57806323b872dd1461010c578063313ce5671461011f57806370a082311461012e575b600080fd5b6100c16101fc565b6040516100ce919061073b565b60405180910390f35b6100ea6100e53660046107a5565b61028e565b60405190151581526020016100ce565b6002545b6040519081526020016100ce565b6100ea61011a3660046107cf565b6102a8565b604051601281526020016100ce565b6100fe61013c36600461080c565b6001600160a01b031660009081526020819052604090205490565b60055461016a906001600160a01b031681565b6040516001600160a01b0390911681526020016100ce565b6100fe61019036600461082e565b6102cc565b6100c161034d565b6100ea6101ab3660046107a5565b61035c565b6100fe6101be36600461085a565b6001600160a01b03918216600090815260016020908152604080832093909416825291909152205490565b6100fe6101f736600461082e565b61036a565b60606003805461020b90610884565b80601f016020809104026020016040519081016040528092919081815260200182805461023790610884565b80156102845780601f1061025957610100808354040283529160200191610284565b820191906000526020600020905b81548152906001019060200180831161026757829003601f168201915b5050505050905090565b60003361029c8185856103dd565b60019150505b92915050565b6000336102b68582856103ef565b6102c185858561046d565b506001949350505050565b6005546000906001600160a01b0316331461033a5760405162461bcd60e51b8152602060048201526024808201527f4d696e742063616e206f6e6c792062652063616c6c656420627920746865206f6044820152633bb732b960e11b60648201526084015b60405180910390fd5b61034482846104cc565b50600192915050565b60606004805461020b90610884565b60003361029c81858561046d565b6005546000906001600160a01b031633146103d35760405162461bcd60e51b8152602060048201526024808201527f4275726e2063616e206f6e6c792062652063616c6c656420627920746865206f6044820152633bb732b960e11b6064820152608401610331565b6103448284610506565b6103ea838383600161053c565b505050565b6001600160a01b038381166000908152600160209081526040808320938616835292905220546000198114610467578181101561045857604051637dc7a0d960e11b81526001600160a01b03841660048201526024810182905260448101839052606401610331565b6104678484848403600061053c565b50505050565b6001600160a01b03831661049757604051634b637e8f60e11b815260006004820152602401610331565b6001600160a01b0382166104c15760405163ec442f0560e01b815260006004820152602401610331565b6103ea838383610611565b6001600160a01b0382166104f65760405163ec442f0560e01b815260006004820152602401610331565b61050260008383610611565b5050565b6001600160a01b03821661053057604051634b637e8f60e11b815260006004820152602401610331565b61050282600083610611565b6001600160a01b0384166105665760405163e602df0560e01b815260006004820152602401610331565b6001600160a01b03831661059057604051634a1406b160e11b815260006004820152602401610331565b6001600160a01b038085166000908152600160209081526040808320938716835292905220829055801561046757826001600160a01b0316846001600160a01b03167f8c5be1e5ebec7d5bd14f71427d1e84f3dd0314c0f7b2291e5b200ac8c7c3b9258460405161060391815260200190565b60405180910390a350505050565b6001600160a01b03831661063c57806002600082825461063191906108be565b909155506106ae9050565b6001600160a01b0383166000908152602081905260409020548181101561068f5760405163391434e360e21b81526001600160a01b03851660048201526024810182905260448101839052606401610331565b6001600160a01b03841660009081526020819052604090209082900390555b6001600160a01b0382166106ca576002805482900390556106e9565b6001600160a01b03821660009081526020819052604090208054820190555b816001600160a01b0316836001600160a01b03167fddf252ad1be2c89b69c2b068fc378daa952ba7f163c4a11628f55a4df523b3ef8360405161072e91815260200190565b60405180910390a3505050565b602081526000825180602084015260005b81811015610769576020818601810151604086840101520161074c565b506000604082850101526040601f19601f83011684010191505092915050565b80356001600160a01b03811681146107a057600080fd5b919050565b600080604083850312156107b857600080fd5b6107c183610789565b946020939093013593505050565b6000806000606084860312156107e457600080fd5b6107ed84610789565b92506107fb60208501610789565b929592945050506040919091013590565b60006020828403121561081e57600080fd5b61082782610789565b9392505050565b6000806040838503121561084157600080fd5b8235915061085160208401610789565b90509250929050565b6000806040838503121561086d57600080fd5b61087683610789565b915061085160208401610789565b600181811c9082168061089857607f821691505b6020821081036108b857634e487b7160e01b600052602260045260246000fd5b50919050565b808201808211156102a257634e487b7160e01b600052601160045260246000fdfea2646970667358221220b9528f6259caab3f4d68db9c587b1887189753afc7e791861a6977546c4d8b4a64736f6c634300081c0033",
  "linkReferences": {},
  "deployedLinkReferences": {}
}